:020000040000FA
:10000000F0660020B9680000BF380200A568000053
:10001000A5680000A5680000A5680000A5680000AC
:10002000000000000000000000000000616A000005
:10003000A568000000000000F9690000A568000044
:10004000A96C0000A96C0000A96C0000A96C00005C
:10005000A96C0000A96C0000A96C0000A96C00004C
:10006000A96C0000A96C0000A96C0000A96C00003C
:10007000A96C0000A96C0000A96C0000A96C00002C
:10008000A96C0000A96C0000A96C0000A96C00001C
:10009000A96C0000A96C0000A96C0000A96C00000C
:1000A000A96C0000A96C0000A96C0000A96C0000FC
:1000B000A96C0000A96C0000A96C0000A96C0000EC
:1000C000A96C0000A96C0000A96C0000A96C0000DC
:1000D000A96C0000A96C0000A96C0000A96C0000CC
:1000E000A96C0000A96C0000A96C0000A96C0000BC
:1000F000A96C0000A96C0000A96C0000A96C0000AC
:10010000A96C0000A96C0000A96C0000A96C00009B
:10011000A96C0000A96C0000A96C0000A96C00008B
:10012000A96C0000A96C0000A96C0000A96C00007B
:10013000A96C0000A96C0000A96C0000A96C00006B
:10014000A96C0000A96C0000A96C0000A96C00005B
:10015000A96C0000FFFFFFFF53B94AB9002908BF8F
:1001600000281CBF4FF0FF314FF0FF3000F00CB8FB
:10017000ADF1080C6DE904CE00F008F8DDF804E0FC
:10018000DDE9022304B07047704700BF2DE9F04756
:1001900086468C460846089E154674461946002B2E
:1001A00040F0C1808542B2FA82F245D94AB1C2F12B
:1001B000200300FA02FC954094402EFA03F343EA30
:1001C0000C0C4FEA154EA8B2230CBCFBFEF80EFB3C
:1001D00018CC08FB00F943EA0C43994528D9EB18E1
:1001E00008F1FF3704D2994502D9A8F102072B4440
:1001F000A3EB0903A4B2B3FBFEFC0EFB1C330CFB08
:1002000000F044EA0344A04214D92C190CF1FF3346
:1002100004D2A04202D9ACF102032C44241A43EACE
:1002200007401EB1D440002334607360BDE8F087FE
:100230004746DDE76346F1E792BB431B01214FEAE6
:10024000154EAFB2200CB3FBFEFC0EFB1C330CFBB7
:1002500007F840EA0343984561D9EB180CF1FF30E9
:1002600004D2984502D9ACF102002B44A3EB080359
:10027000A4B2B3FBFEFC0EFB1C330CFB07F744EAF5
:100280000344A7424DD92C190CF1FF3304D2A742E5
:1002900002D9ACF102032C44E41B43EA0040C0E75E
:1002A000C2F120039540944020FA03F12EFA03F3A3
:1002B0004FEA154E9040AFB20343B1FBFEFC0EFB7C
:1002C0001C10190C0CFB07F841EA0041884522D9A3
:1002D00069180CF1FF3004D2884502D9ACF1020054
:1002E0002944A1EB08019BB2B1FBFEFC0EFB1C11E3
:1002F0000CFB07F743EA01439F420ED9EB180CF1C0
:10030000FF3104D29F4202D9ACF102012B44DB1B26
:1003100041EA004193E76046E3E76146F7E760465C
:10032000A4E76346B8E7834206D916B90021084618
:100330007CE7C6E900E0F9E7B3FA83F78FB98342B7
:1003400001D3724508D8BEEB020460EB0303012021
:100350009C461EB9002169E73846FAE7C6E9004C19
:10036000F8E7C7F1200CBB400EFA07F522FA0CF4AF
:100370002EFA0CF1BA401C4320FA0CF3B8404FEAB5
:10038000144901431FFA84FEB3FBF9F809FB183046
:100390000B0C08FB0EFA43EA00439A4540D9E318D8
:1003A00008F1FF3004D29A4502D9A8F10200234493
:1003B000A3EB0A0389B2B3FBF9F809FB183308FB76
:1003C0000EFE41EA03418E452CD9611808F1FF3336
:1003D00004D28E4502D9A8F10203214443EA004029
:1003E000A1EB0E01A0FB02984145CE46434602D345
:1003F00006D14D4504D20138B9EB020E68EB040377
:10040000002EA7D0B5EB0E0261EB030101FA0CFC44
:1004100022FA07F3F9404CEA0303C6E9003199E7F1
:100420004046C5E74346D9E710F8012B11F8013BD8
:10043000012A28BF9A42F7D0D01A7047034613F812
:10044000012B002AFBD1181A013870470000000068
:1004500010B5082140F6014008F060FED8B104460E
:1004600008210C3016F054FC02460F4B93F8D8309C
:1004700013F0010F0BD10D484FF0005123F023FC76
:100480000022214640F6014008F09AFE10BD04A16A
:10049000D1E90001F2E76FF06800F7E7AFF3008001
:1004A00090880002008000200000002010880002D8
:1004B000B0B582B000AF6C4688B06B4613F1100245
:1004C0003ED010206AB18446042801DD1F4D5D61D5
:1004D000BCF1080F01DD1E4D9D61BCF10C0F00DD6C
:1004E000D9610F282FDD4FF0100C3AB1042139717A
:1004F00000217971B971F9717868186100216FF381
:1005000000016FF341016FF382016FF3C501032313
:1005100063F38811CCF30A0C6CF353216FF31F5172
:1005200000230C4803F076FEA5460B4B186820B15B
:100530000DF07EFF084B00221A600837BD46B0BDA3
:100540006FF00040BEE76FF01B0CCEE7389D020055
:10055000C09F02002C9B02004C190020F0B585B012
:1005600000AF002940F0838004466D4688B06B469A
:1005700013F1100200F0BC800C2142B1084604299E
:1005800001DD614E5E61082801DD604898610B293C
:1005900040F3B1804FF00C0C3AB1032139710021C6
:1005A0007971B971F9717868186100216FF30001F0
:1005B0006FF341016FF382016FF3C501032363F30E
:1005C0008811CCF30A0C6CF353216FF31F510023F5
:1005D0004F4803F01FFEAD4620460DF0FFFE0346D8
:1005E0004C4A10604C4907F1080203C982E8030035
:1005F0001146184624F0DBFA044600286FD06D46F9
:1006000088B06B4613F1100278D010215AB1084619
:10061000042901DD414E5E61082801DD3B4E9E61EB
:100620000C2800DDDC610F296BDD10243AB10421B8
:10063000397100217971B971F971786818610021F7
:100640006FF300016FF341016FF382016FF3C50196
:10065000022363F38811C4F30A0464F353216FF394
:100660001F5100232A4803F0D5FDAD4637E0084668
:100670006D4688B06B4613F1100233D010215AB189
:100680000C46042901DD264E5E61082C01DD1F4E5B
:100690009E610C2C00DDD8610F2926DD10243AB1B3
:1006A0000421397100217971B971F9717868186183
:1006B00000216FF300016FF341016FF382016FF3CB
:1006C000C501012363F38811C4F30A0464F35321C1
:1006D0006FF31F5100230E4803F09CFDAD46143705
:1006E000BD46F0BD6FF00041C9E76FF01B04D6E7CF
:1006F0006FF0004141E76FF01B0C4DE76FF00041D8
:1007000084E76FF01B0491E7789D0200B49F02001C
:100710002C9B02004C190020509C0200889D020076
:10072000589D020070B5032A06D8032A0CD0114642
:10073000144821F04AFB70BD0846511E10F8012BE9
:1007400089B200F0E7FAF6E70C784B788D7845EA45
:1007500003252A4621460C4821F037FB012C0CDCEE
:100760000A4E26F814502A462146094821F02DFB4E
:100770002146304621F097FADDE72146054821F071
:1007800024FBD8E7BC9D0200E89D02004819002028
:100790001C9E0200489E0200F0B589B000AF4FF0E9
:1007A000FF324FF0FF3348481DF07AF96AE028F035
:1007B00003FE4B0143EAD0634201121A63EB0103CB
:1007C0009B0043EA92739200121843EB0103DB0093
:1007D00043EA5273C2F3103242EA4342DB0BBA607F
:1007E000FB603A4821F0F1FA00230AE003F120010E
:1007F000394411F8181C03F124023A4402F80C1C85
:100800000133072BF2D90C2207F11401304B186881
:1008100004F078F998B36D4688B06B4613F1100276
:100820004BD00C2142B10846042901DD294E5E61FE
:10083000082801DD284898610B2941DD0C213AB1D7
:100840000320387100207871B871F87178681861E8
:100850006FF300046FF341046FF382046FF3C50478
:10086000022363F38814C1F30A0363F353246FF381
:100870001F5400232146194803F0CCFCAD4620202C
:1008800021F0C9F900F042FB114B1B68002BF6D098
:100890000023012B8BDC5A0030F813C007F1200134
:1008A00001EB430101F80CCC30F8131021323A442B
:1008B000090A02F80C1C0133EBE76FF00041B1E7C5
:1008C0006FF01B01BBE700BFC4060020689E02005A
:1008D0004C190020889E0200909F02002C9B020071
:1008E000F0B58FB002AF00200AF0D0FE002874D11E
:1008F0006D4688B002AB13F1100200F0B0800C21FD
:1009000042B10846042901DDA94C5C61082801DDDB
:10091000A84898610B2940F3A5800C243AB1032123
:10092000397100217971B971F97178681861002104
:100930006FF300016FF341016FF382016FF3C501A3
:10094000032363F38811C4F30A0464F353216FF3A0
:100950001F510023984803F05DFCAD46974804F012
:10096000C5F80446002800F086806E4688B002ABC9
:1009700013F1100279D010215AB10846042901DD83
:100980008F4D5D61082801DD8A4D9D610C2800DDD9
:10099000DC610F296CDD10253AB104213971002189
:1009A0007971B971F9717868186100216FF30001EC
:1009B0006FF341016FF382016FF3C501012363F30C
:1009C0008811C5F30A0363F353216FF31F5100230A
:1009D000794803F01FFCB54637E004466E4688B000
:1009E00002AB13F1100234D010215AB10846042989
:1009F00001DD744D5D61082801DD6E4D9D610C289F
:100A000000DDDC610F2927DD10253AB104213971A1
:100A100000217971B971F9717868186100216FF35B
:100A200000016FF341016FF382016FF3C5010123F0
:100A300063F38811C5F30A0565F353216FF31F5162
:100A400000235D4803F0E6FBB54620463437BD463B
:100A5000F0BD6FF00041C8E76FF01B05D5E76FF000
:100A600000414DE76FF01B0458E76FF0004183E74A
:100A70006FF01B0590E701233B727B7206233B76E8
:100A800007F11803FB6009233B7407237B744E4B6B
:100A90007B6107F11C044D4D0FCD0FC42B68236003
:100AA00000230093022207F1080107F11C000CF05B
:100AB0005FFA0446002837D16E4688B002AB13F1C6
:100AC00010026FD00C2142B10846042901DD404DCF
:100AD0005D61082801DD374898610B2965DD0C252B
:100AE0003AB10321397100217971B971F9717868CE
:100AF000186100216FF300016FF341016FF3820170
:100B00006FF3C501032363F38811C5F30A0565F389
:100B100053216FF31F510023274803F07BFBB54699
:100B20002C481CF077FF90E76E4688B002AB13F1BB
:100B3000100231D010215AB10846042901DD264D9A
:100B40005D61082801DD1B4D9D610C2800DDDC6125
:100B50000F2924DD10253AB1042139710021797162
:100B6000B971F9717868186100216FF300016FF3B2
:100B700041016FF382016FF3C501012363F3881113
:100B8000C5F30A0363F353216FF31F5100230A488F
:100B900003F040FBB54658E76FF00041CBE76FF03C
:100BA0001B05D8E76FF000418DE76FF01B0597E755
:100BB000DC9E0200A49F02002C9B0200700100201A
:100BC000F89E0200AC9E0200289F0200589C020082
:100BD0005C9F0200C4060020309F020000B589B06F
:100BE00000220023CDE90623002304930722039269
:100BF000029301930093064B4FF4006205490648A7
:100C00001CF048FB054821F0E0F809B05DF804FB52
:100C100099070000582B0020C8080020749F02008C
:100C20002DE9F04182B000AF002547E0E8468AB0E8
:100C30006B4613F1100258D014219AB108460429CA
:100C400003DDDFF8BCE0C3F814E0082803DDDFF8BB
:100C5000B4E0C3F818E00C2800DDDC61102801DDE9
:100C6000C3F820C0132943DD14213AB105203870A0
:100C700000207870B870F870386818616FF300065B
:100C80006FF341066FF382066FF3C506012363F32A
:100C90008816C1F30A0363F353266FF31F5600232C
:100CA0003146194803F0B6FAC546184B4FF6FF72A5
:100CB00023F81520082020F0E0FF0135012D1ADC73
:100CC000ACB23134A4B223460222391D1048006868
:100CD00020F0C5FF84460028A8D13A797B7943EA01
:100CE00002230A4A22F81530E4E76FF00041A4E736
:100CF0006FF01B01B9E70837BD46BDE8F08100BFC2
:100D0000E09F0200ECA00200D49B020050190020DA
:100D10007C0100202DE9F04383B000AF80460E46F1
:100D2000154602F13104E4B2E9468AB0EC461CF102
:100D3000100200F08C801821B2B10B46042902DDAC
:100D40006D48CCF81400082B02DD6C48CCF8180074
:100D50000C2B01DDCCF81C50102B01DDCCF8204011
:100D6000142B01DDCCF82460172973DD182342B160
:100D70000621397100217971B971F9717868CCF85F
:100D8000100000216FF300016FF341016FF3820146
:100D90006FF3C501032060F38811C3F30A0363F303
:100DA00053216FF31F510023554803F033FACD460A
:100DB0002346324641465348006820F042FF8446AD
:100DC000002850D1E8468AB06B4613F1100244D097
:100DD0001820AAB10146042803DDDFF81CC1C3F8BE
:100DE00014C0082903DDDFF814C1C3F818C00C29AA
:100DF00000DDDD61102900DD1C62142900DD5E626A
:100E000017282DDD18243AB1062139710021797196
:100E1000B971F9717868186100216FF300016FF3FF
:100E200041016FF382016FF3C501032363F388115E
:100E3000C4F30A0464F353216FF31F5100233048B5
:100E400003F0E8F9C5460C37BD46BDE8F0836FF006
:100E5000004171E76FF01B0389E76FF00040B8E7CE
:100E60006FF01B04CFE76E468AB06B4613F1100299
:100E70003CD01820B2B10146042803DDDFF888E039
:100E8000C3F814E0082903DDDFF870E0C3F818E0C8
:100E90000C2900DDDD61102900DD1C62142901DD53
:100EA000C3F824C0172824DD18243AB1062139716B
:100EB00000217971B971F9717868186100216FF3B7
:100EC00000016FF341016FF382016FF3C50101234C
:100ED00063F38811C4F30A0464F353216FF31F51C1
:100EE0000023074803F096F9B546ACE76FF00040E1
:100EF000C0E76FF01B04D8E70CA00200D8A00200E6
:100F0000D49B02007C01002044A0020000487047EE
:100F100050190020B0B582B000AF6D4688B06B4666
:100F200013F1100270D00C2142B10846042901DDF2
:100F30003E4C5C61082801DD3D4898610B2966DD67
:100F40000C243AB10321397100217971B971F97119
:100F50007868186100216FF300016FF341016FF3AE
:100F600082016FF3C501032363F38811C4F30A04FC
:100F700064F353216FF31F5100232E4803F04AF905
:100F8000AD464FF47A7020F078FEFFF7A9FC0446D6
:100F900040F6B83020F071FE002C41D088B06B468E
:100FA00013F1100236D00C2142B10846042901DDAC
:100FB000214C5C61082801DD1D4898610B292CDD5E
:100FC0000C243AB10321397100217971B971F97199
:100FD0007868186100216FF300016FF341016FF32E
:100FE00082016FF3C501012363F38811C4F30A047E
:100FF00064F353216FF31F5100230E4803F00AF9E5
:1010000000200837BD46B0BD6FF000418CE76FF09F
:101010001B0496E76FF00041C6E76FF01B04D0E7B2
:10102000FFF7DCFDFFF7FCFDFCE700BF7CA0020042
:10103000D0A00200D49B0200ACA00200F8B540B1E1
:10104000064603784578847804EB8304044400273B
:1010500011E00B4CC62322460A490B4821F0F4F953
:10106000C621204621F0E9F901342046FFF7E6F9D0
:10107000013004440137AF42F6D3A01BF8BD00BFD6
:101080000CA1020044A102005CA102002DE9F04F76
:1010900091B005920393134602F004020092C3F349
:1010A000C20210F00303019340F0708280468A462A
:1010B0000132041D002850D0B8F1000F05D0A4EB78
:1010C00008030433534500F26482039B5D1E019BB9
:1010D00004930693029300264FF0FF3B0427B94682
:1010E000B8F1000F01D0039B2360531E0793002A21
:1010F00040F36181059B13F0020229D00120A4EB8B
:1011000008018B081AB1B1F5007F80F06881029A5E
:101110000F2A00F27481B8F1000F00F08481DBB275
:10112000029901F140026A4402F8103C02F820BC26
:10113000002800F0748163F07F0301F140026A44EB
:1011400002F8103C049B01330493029B0133029389
:1011500004340022CC4640463DE001F0070A5444E6
:10116000CAF1080AA8E7002634E0002632E000268B
:1011700030E00827BC462DE025292BD10BF1010BCF
:1011800001260427BC4625E04729EED82A2914D396
:101190002A39C9B24FF0010E0EFA01F14FF6DA7E8C
:1011A00011EA0E0F16D111F0625F40F0C28011F00B
:1011B000010F40F08D8000260CE0252903D10BF1B2
:1011C000FF3B002606E001D9002603E0202901D0DC
:1011D0002329CCD11D466B1C6978002900F04E8173
:1011E000002EC9D07A29BED84C29CDD34C392E290E
:1011F00062D80FF2080E5EF821F000BFD511000092
:10120000B9120000B9120000B9120000B9120000B2
:10121000B9120000B9120000B9120000B9120000A2
:10122000B9120000B9120000B9120000C912000082
:10123000B9120000B9120000B9120000B912000082
:10124000B9120000B9120000B9120000B912000072
:1012500033130000B9120000C9120000C9120000C7
:10126000331300003313000033130000D5110000C6
:10127000C912000073110000B9120000D51100005E
:10128000B91200008F130000C91200008F13000074
:10129000B9120000B912000097130000C312000039
:1012A000C9120000B9120000B9120000C9120000F2
:1012B000B9120000BD12000000268BE70427BC46CF
:1012C00088E70427BC4685E729786C2925D00026C5
:1012D0003C44013CB4FBF7F407FB04F4254620B181
:1012E000211A61448A45C0F05781002A58D1BCF1C7
:1012F000040F00F0A980BCF1080F40F0AD801A99EE
:10130000073121F0070101F108051A95D1E900899B
:1013100008B1C4E9008908345CE713F8021C6C29A1
:1013200003D000260427BC46D2E700260827BC4687
:10133000CEE729784C291AD01A99073121F00701F4
:1013400001F108061A96D1E90067073424F0070472
:1013500040B1211A0831514513D829784C2913D0AE
:10136000C4E90067083400260827BC4632E71A990A
:10137000073121F0070101F108061A96D1E900674B
:10138000E3E76FF01B00FEE0C4E90067EAE7002630
:101390000427BC469CE7324600260427BC4697E754
:1013A0002C46E14680461A9A111D1A911268039242
:1013B000079A1D4694E67D4B039A9A4204D37C4BD0
:1013C0009A420AD3002300E00023002B7FF492AE60
:1013D000059B03F00202002091E60123F5E7754C1E
:1013E00040F27B2322467449744821F02DF874485A
:1013F00021F02AF840F27B21204621F01EF86D4CA6
:101400004FF4207322466C496C4821F01DF86D485A
:1014100021F01AF84FF42071204621F00EF8069BB7
:101420000133069391E610B10AF1010A8DE6009BA3
:1014300013B10AF1020A88E60398FEF7FFFF00EBFA
:101440000A0303F1020A80E61A990D1D1A9509682C
:1014500000B121600434BDE6E146564C40F2C5239C
:1014600022465549554820F0EFFF4946564820F09E
:10147000EBFF40F2C521204620F0DFFF8046231A13
:10148000B3F5806F13D210B3002202609B08037083
:10149000009B03B3069BC370049B88F802309BBB80
:1014A000019DDDF80890DDF810B0039F4DE0414C40
:1014B00040F2D12322464049404820F0C5FF43482E
:1014C00020F0C2FF40F2D121204620F0B6FF534465
:1014D000A3F1080057E0069B4370DDE70133984213
:1014E000DED903F140026A4412F8101C12F9102CE4
:1014F000002AF3DA01F07F01A4EB080201329245E1
:101500004DD304F8011BE9E7019B0298E7E7009B34
:1015100043B305F140036B4413F8203C04F8013B4E
:10152000019EA4EB0803334401339A453AD305F1F5
:1015300040036B4413F8103C04F8013B3246394633
:10154000204628F0F1F834440135A94519D9BBF1FA
:10155000000FDCD005F140036B4413F9103C002B65
:10156000D5DAF1E705F140036B4413F8103C58F865
:101570002370002248F823203846FEF75FFF461C00
:10158000CFE7A4EB080011B0BDE8F08F6FF00D00BD
:10159000F9E76FF01B00F6E76FF01B00F3E76FF061
:1015A0001B00F0E76FF01B00EDE700BF789702002B
:1015B000941803000CA102002C1603005CA1020089
:1015C0007CA10200A0A10200BCA10200D4A10200E3
:1015D0002DE9F04F97B000AF39617A617862B0B110
:1015E0009B46D7F88030C3F3C003FB613B69DBB196
:1015F0007B6A93F80280C7F80C80B8F1000F18D00E
:10160000D7F8803013F0010F1FD1002312E0AE4C49
:101610004FF465732246AD49AD4820F015FF4FF4F5
:101620006571204620F009FF786AFFF707FD3861F1
:10163000DEE700237A6AD2783A6242B1D7F8802096
:1016400012F0020F22D1002202E00123F2E7002271
:1016500002B9EBB1796A0D78AA00BA600A46496806
:10166000B96102EB85057A69FAB1002B40F013816C
:10167000FB68002B00F01E81D7F8803013F0040FB8
:1016800040F01C8100208246804608E10122DFE70D
:101690007B691BB15A463969786A9847D7F8109028
:1016A00048465C37BD46BDE8F08FD7F8109013BBB5
:1016B000FB68B3B3D7F8802012F0040B26D01D448A
:1016C0004FF0000B22E081440135013444451CD227
:1016D0002A7800235AF822201946786920F002FB64
:1016E000002EF0D0D7F888309B45ECD226F81B00AE
:1016F0000BF1010BE7E70024A346D7F80C803E610D
:10170000D7F824A0D7F88460E0E73E69D7F88030A6
:1017100003F00503FB604FF0000AC7F810B0B346B2
:10172000A4E0D7F80CB0F1E70025FB697BB9002DE8
:101730007ED0D7F8803013F0010F7ED1FB68002BEC
:1017400074D10223A9EB03098DE00125EDE74146A1
:10175000B86920F00DFB0028E9D06D46012387F819
:101760002C30032387F82D308AB0694611F110021E
:101770003CD0162642B13346042E01DD554848615F
:10178000082B01DD544B8B61012387F8283003239C
:1017900087F829306ABB152E45DD162362B1052076
:1017A00087F82C00002087F82D0087F82E000120F4
:1017B00087F82F00F86A08616FF3000B6FF3410B95
:1017C0006FF3820B6FF3C50B022161F3881BC3F328
:1017D0000A0363F3532B6FF31F5B002359463F4803
:1017E00002F018FDAD46A9F102093CE06FF0004699
:1017F000C0E733460C2E01DDB869C861102B01DD4E
:10180000C1F8208001F12403002009E000F1300C30
:1018100007F1280EF4441CF830CC03F801CB01305A
:101820000128F3D9B7E76FF01B03B7E7012389E776
:10183000D7F8803013F0020F15D000233246194636
:10184000786920F04FFAD7F8843053B13B69D7F864
:101850008820934205D2D7F8842022F81300013360
:101860003B61013881440AF1010A25463B6A9A45E9
:10187000BFF416AF2C4614F8028B6B787A6A52F8D4
:101880002360174B9E42FFF44FAF164B9E42FFF46E
:101890005CAF002549E707F144004FF0000A18B19A
:1018A000FA68294627F040FFFB681D440026C7F868
:1018B00004B034E0002082468046F0E7C24607F1DB
:1018C00034004FF00008EAE70CA10200ECA102008E
:1018D0005CA1020008A20200F0A20200BC9B020070
:1018E00078970200941803000025FB696BBB002D5C
:1018F00061D0D7F8803013F0010F3AD0B8F10F0F54
:101900002AD808F1010308F1300207F1280102EB9F
:10191000010808F8149C5FFA83F8013625463B6AF3
:101920009E4280F08E802C4614F802BB95F8019000
:101930007B6A53F82930874A9342D5D3864A93422B
:1019400001D30025D1E70125CFE75946B86920F03A
:101950000FFA0028CBD0E0E7804C4FF48863224692
:101960007F49804820F070FD4FF48861204620F0C8
:1019700064FDD7F8803013F0040FCED0BAF10F0F0A
:101980000CD80AF101030AF1300207F1280102EB39
:10199000010A0AF8249C5FFA83FABEE76F4C40F212
:1019A0004343224670496F4820F04EFD40F24341C8
:1019B000204620F042FDD7F8803013F0020F1CD0F3
:1019C000B8F10F0F0CD808F1010308F1300207F14C
:1019D000280102EB010808F8149C5FFA83F89CE7E1
:1019E0005E4C40F24A4322465D495E4820F02CFDA1
:1019F00040F24A41204620F020FDBAF10F0F13D8E3
:101A00000AF101030AF1300207F128010A4402F841
:101A100024BC0AF1020A5FFA8AFA07F1580252FA64
:101A200083F303F8249C78E74C4C40F24D43224664
:101A30004D494C4820F008FD40F24D41204620F031
:101A4000FCFCD7F804B07A6A137887F854305378DE
:101A5000434487F85530D7F8803013F0020F0DD18A
:101A6000CAF3470387F85730D7F8803013F0010FD7
:101A700006D113F0040F35D1002302E00023F1E773
:101A8000002387F856307C6A20683863786D2060C0
:101A90005A46B96820467E69B047B0F10009FFF6A2
:101AA000FFAD386B20605A46514607F13400B0470D
:101AB000002849DB09EB0004FA68BB681A443B6A5A
:101AC00002EB43015A463B69591A2846B047B0F128
:101AD0000009FFF6E5AD4C440025C7F82080D7F893
:101AE000849015E05346CCE74FF0000A5A46012196
:101AF00007F12C00B047002828DB04445346424637
:101B00005946304620F0EEF8002821DB0444013528
:101B10003B6A9D4211D205F1300307F128021344BC
:101B200013F8143C87F82C307A6A52F82380B9F104
:101B3000000FD9D039F815A0D8E75A460021084639
:101B40007B699847A146ABE58146A9E58146A7E5B3
:101B50008146A5E578970200941803000CA10200C5
:101B6000B0A202005CA10200D0A20200014B1860EA
:101B7000704700BF8001002080B505460E4617461D
:101B800098461EF0C5F9034627F0ECFD0446DFF841
:101B9000189049F80030424639463046A84754F874
:101BA000090004F0F7FE00BF08000000002947D03C
:101BB00070B50D460668304620F03BFA044606EB49
:101BC000C003B268B2F5004F17D35B6813F0010F82
:101BD00015D004EB5303B2F5004F1FD356F8332052
:101BE0009B1A9C421DD100222146304620F0FBF872
:101BF0002146304620F07AFA70BD5B88E6E7114C4A
:101C0000AF2322461049114820F01EFC29461048F7
:101C100020F01AFCAF21204620F00FFC36F83320CC
:101C2000DEE7084CB72322460A49084820F00CFC9E
:101C30002946094820F008FCB721204620F0FDFB8A
:101C4000704700BF20A302004CA302005CA1020069
:101C500060A3020098A30200C0A302002DE9F8438C
:101C6000154606684B420B4001F1FF3919EA01099C
:101C70000CD0B268B2F5004F06D3082293425CD272
:101C80001A464C46994609E00422F7E70C46B36829
:101C9000B3F5004F4AD30822944249D9631E234228
:101CA0004ED1002D74D0B368B3EBD50F73D9611941
:101CB000891AB3F5004F53D3082319440731C908D3
:101CC000304620F06EFA0746002867D001463046BD
:101CD00020F0A5F800EB0908A04408F1FF38B8FB94
:101CE000F4F804FB08F8A8EB090808EB050407342E
:101CF00024F007044146304620F09BF90546A41B1A
:101D0000E41087422ED306EBC503B268B2F5004F4C
:101D100032D35B6805EB53039C422FD30122294643
:101D2000304620F060F84046BDE8F8830422B3E76F
:101D3000294620F087FA8046F5E74C469946ADE7FC
:101D4000184C4FF4A27322461749184820F07CFB28
:101D5000174820F079FB4FF4A271204620F06DFB6C
:101D60000423AAE702463946304620F0ECF839460B
:101D7000304620F092F9C6E75B88CBE72246294639
:101D8000304620F0E0F82146304620F086F9C5E7DD
:101D90004FF00008C7E74FF00008C4E74FF0000815
:101DA000C1E700BF20A30200FCA302005CA1020067
:101DB00018A40200F8B5B2F5802F01D2042A2BD95D
:101DC000B2F5802F38D30823D21ACC1D24F0070493
:101DD0000A4422F00702121BD108172A2ED90460E8
:101DE000A1600023E360B2F5802F37D308200830CC
:101DF000A1EBD0030133B3FA83F3C3F1200CC3F199
:101E000024039B0003F1070E4FEADE0606EBD00029
:101E1000884225D8002338E0414C4FF4F97322461C
:101E20004049414820F010FB404820F00DFB4FF4A2
:101E3000F971204620F001FB0423C5E7384C40F23D
:101E4000FB1322463A49384820F0FEFA374820F082
:101E5000FBFA40F2FB11204620F0EFFA0420C6E71F
:101E60002F4C4FF40373224632492F4820F0ECFAEE
:101E70002E4820F0E9FA4FF40371204620F0DDFAF5
:101E8000181D002544F8205001336345F8DB73002A
:101E9000B2F5802F31D36360B2F5802F2FD30023AA
:101EA0002360B2F5802F2DD3636843F00103636094
:101EB000881B47002EF00703E518B2F5802F26D3C4
:101EC0006F60A568B5F5004F23D3E65022F00703F5
:101ED0002244A568B5F5004F1DD300255560A268C2
:101EE000B2F5004F1AD3E050012220461FF07BFFCD
:101EF0003146204620F0D1F8F8BD6380CCE70023BE
:101F00002380CEE7638843F001036380D0E76F80CE
:101F1000D7E7E652DAE700255580E0E7E052E3E74D
:101F200020A3020038A402005CA102005CA402000D
:101F300078A40200A4A4020010B504468C46838B4A
:101F4000002A12DB03F007035A1F012A19D9042BB8
:101F500050D1002120F0B4F9204620F0DBF978B10F
:101F6000A38B43F02003A3830AE0D0E900018CE8AF
:101F700003000023236063600121204620F0A0F9C4
:101F800010BDD0E900018CE80300002222606260ED
:101F9000062B0FD0052B20D10021204620F090F9F0
:101FA000204620F0B7F90028EAD0A38B43F02003A5
:101FB000A383E5E7DCF8003053B1E28B0132E28322
:101FC0001A461B68002BF7D0002AF5D11346F3E719
:101FD0000221204620F074F9E2E70D4C40F209138B
:101FE00022460C490C4820F02FFA40F209112046F5
:101FF00020F023FA064C40F21B13224607490648FC
:1020000020F022FA40F21B11204620F016FA00BF01
:10201000D0A40200FCA402005CA102002C16030064
:102020002DE9F04782B0838BE1B10446154603F0F9
:10203000070603F00802084692B301291FD00229BF
:1020400021D143F02003A383143420461BF0D6F99A
:10205000002800F09F8185F31188BFF36F8F02B0D5
:10206000BDE8F087BA4C40F233132246B949BA486A
:1020700020F0EAF940F23311204620F0DEF943F077
:102080001003A383E0E7B24C4FF49E732246B3499A
:10209000B14820F0D9F94FF49E71204620F0CDF9D7
:1020A00000230093019358E0204620F033F956E0D6
:1020B000D4F818904A4669462046FFF73DFF0027AE
:1020C000A38B03F00708B04500F00981A268002A3D
:1020D00000F00581012643F00803A38304F1140AEC
:1020E00050461BF08BF9002800F0028185F311881F
:1020F000BFF36F8F002E40F00C81009B2BB14B463D
:1021000042466946204620F046F917B194492046D8
:10211000B8474FF02003EFF3118583F31288BFF324
:102120006F8F50461BF05AF9002800F0F880504697
:102130001BF074F9A38B23F00803A383A38B13F084
:10214000100F00F0FB8023F01003A3830120A68B67
:1021500006F0070600283FF477AF0228A4D0002835
:102160003FF472AF0138042800F2AC8001A353F8A9
:1021700020F000BFB1200000C5220000892100002E
:10218000F12100005B2200005EB92368B3B123692E
:102190001F6807B30621204620F092F84FF000098F
:1021A0008EE76B4C4FF4AB7322466E496A4820F0C1
:1021B0004BF94FF4AB71204620F03FF9644C40F2EC
:1021C000571322466849644820F03EF940F25711FF
:1021D000204620F032F95E4C4FF4AD73224663493D
:1021E0005D4820F031F94FF4AD71204620F025F91B
:1021F000022E0BD1E38BB3B923695F6807B30421C7
:10220000204620F05DF84FF0000959E7504C40F2AD
:102210005D1322465649504820F016F940F25D11F0
:10222000204620F00AF94A4C4FF4AF732246514938
:10223000494820F009F94FF4AF71204620F0FDF82D
:10224000434C40F2611322464849434820F0FCF8D1
:1022500040F26111204620F0F0F8012E0BD12368E6
:10226000B3B123699F6807B30521204620F028F801
:102270004FF0000924E7364C4FF4B27322463E4932
:10228000354820F0E1F84FF4B271204620F0D5F83F
:102290002F4C40F26513224633492F4820F0D4F8E2
:1022A00040F26511204620F0C8F8294C4FF4B47371
:1022B00022462E49284820F0C7F84FF4B471204632
:1022C00020F0BBF8224C40F26B1322462B492248E7
:1022D00020F0BAF840F26B11204620F0AEF8009AD8
:1022E0000AB10026F7E6002F3FF428AF0026F2E6F9
:1022F000234C40F2311322462249174820F0A4F81B
:102300005146214820F0A0F840F23111204620F03B
:1023100094F84A46414620461FF0DAFFEDE6184C95
:102320008823224619490C4820F08EF85146184857
:1023300020F08AF88821204620F07FF813F0200F43
:1023400004D023F02003A383022000E70020FEE650
:10235000D0A4020024A502005CA1020034A5020062
:10236000C923000048A5020054A5020078A5020078
:1023700090A50200A8A50200B8A502002C16030033
:10238000D0A5020008A6020020A6020038A602007E
:1023900050A60200084D40F231132A46074908486A
:1023A00020F052F82146074820F04EF840F2311153
:1023B000284620F042F800BFD0A5020008A602007F
:1023C0005CA1020020A60200F8B504460D4600F10B
:1023D00014064FF02003EFF3118783F31288BFF345
:1023E0006F8F30461AF0FAFF48B130461BF016F8EE
:1023F000A5613A4601212046FFF712FEF8BD074CC1
:10240000882322460649074820F01EF83146064830
:1024100020F01AF88821204620F00FF8D0A50200FD
:1024200038A602005CA1020050A602002DE9F84F78
:10243000044688461FF087FF061E48DB04F1140798
:102440004FF02003EFF3118A83F31288BFF36F8FED
:10245000D34638461AF0C2FF8146A8B138461AF072
:10246000DDFFA58B05F00705E38B4FF6FF72934266
:102470004BD02E46022D16D0062D39D8DFE805F0B8
:10248000314C3838312A31003B4C882322463B49B5
:102490003B481FF0D9FF39463A481FF0D5FF882145
:1024A00020461FF0CAFF0133E38300231A4642B1DE
:1024B0000022C8F800206268AAB3C2F80080C4F8FD
:1024C0000480ABB3524602212046FFF7A9FD3046F7
:1024D000BDE8F88F6FF085064FF000094B464A467D
:1024E000E5E7B5FA85F35B094A464FF00009DEE7F8
:1024F000254C4FF4E4732246244921481FF0A4FFE1
:102500004FF4E47120461FF098FF6FF00A064FF079
:1025100000094B464A46CAE76FF004064FF000092F
:102520004B464A46C3E7C4F80480C4F80080C8E7B5
:1025300038461AF063FF68B18BF31188BFF36F8FD1
:10254000B9F1000FC3D000232A46414620461FF0B0
:102550000FFFBCE7084C40F2311322460C490848F3
:102560001FF072FF39460B481FF06EFF40F2311129
:1025700020461FF062FF00BFD0A5020038A602006F
:102580005CA1020050A60200D0A40200B8A502007F
:1025900008A6020020A602002DE9F041044600F141
:1025A00014054FF02003EFF3118683F31288BFF375
:1025B0006F8F28461AF012FF70B1374628461AF07E
:1025C0002DFFA38B03F007039846022B16D0012B97
:1025D00011D06FF0850817E0234C88232246234949
:1025E00023481FF031FF294622481FF02DFF882184
:1025F00020461FF022FF6FF0040805E0E38B73B163
:10260000013B9BB2E383BBB128461AF0F7FEC8B189
:1026100087F31188BFF36F8F4046BDE8F081164CF9
:1026200040F2EF132246154911481FF00DFF40F20A
:10263000EF1120461FF001FF324602212046FFF72E
:10264000EFFCE9E7084C40F2311322460C490848F8
:102650001FF0FAFE29460B481FF0F6FE40F231113A
:1026600020461FF0EAFE00BFD0A5020038A60200F7
:102670005CA1020050A60200D0A4020068A60200DD
:1026800008A6020020A6020010B50346426802F028
:1026900003028160022A11D0032A0CD0012A10D033
:1026A0000C4C452322460C490C481FF0CDFE452119
:1026B00020461FF0C2FE0468002004E000680024E9
:1026C00001E00024204600225A6008B11EF092FD6D
:1026D000204610BD78A602002C1603005CA1020063
:1026E00038B504460D462022002127F02AF8EB6871
:1026F000E361AB68A3612B6823626B6863620022AD
:10270000A2622A6922612BB1591E0B4202D142F00A
:102710000102226104F12C000122002126F0B6FC06
:1027200000B938BD054C2E232246054905481FF047
:102730008BFE2E2120461FF080FE00BFA4A60200C3
:10274000D4A602005CA102002DE9F04F89B09946A1
:10275000002307930593436A8B42C0F0F3808346BE
:102760008A46904600260127039662E0784C88232B
:102770002246784978481FF067FE294677481FF0BF
:1027800063FE882120461FF058FE314658461FF050
:102790008FFF0023059363E0DBF82030DBF8002097
:1027A00003EB8201039113F822106FF3000103F889
:1027B0002210C9B26FF3410103F82210DBF8003098
:1027C0005344DBF8102012F0010F05D1DBF8241080
:1027D0008B4205D35B1A03E0DBF8241001390B4070
:1027E000CBF80030DBF80C10994201D0002709E04B
:1027F00042F00802CBF81020002703E058461FF0F3
:102800008FFE2746019C28461AF0F8FD002800F0AC
:10281000888084F31188BFF36F8F079931B1DBF89B
:1028200018300BB15846984700230793002F00F04B
:102830008B800BF114054FF02003EFF3118483F329
:102840001288BFF36F8F029428461AF0C7FD002844
:102850008CD028461AF0E2FD0194059A002A94D102
:1028600006A958461FF0FEFD04460699514593D22D
:102870000028C3D159EA08030BD1002FC2D0DBF8DE
:10288000006005AB07AA069958461FF07CFE074674
:10289000B8E726F03DFB0028EFD128461AF0AEFD40
:1028A000F8B1029B83F31188BFF36F8F0BF12C00FB
:1028B00042464B461BF0F4F807464FF02003EFF377
:1028C000118483F31288BFF36F8F28461AF086FDB8
:1028D000C0B128461AF0A2FD0194B7FA87F77F0924
:1028E00090E71B4C40F2311322461D491A481FF055
:1028F000ABFD29461B481FF0A7FD40F231112046D1
:102900001FF09BFD124C88232246124912481FF0EB
:102910009BFD294611481FF097FD882120461FF096
:102920008CFD0B4C40F2311322460D490A481FF032
:102930008BFD29460B481FF087FD40F231112046E0
:102940001FF07BFD00230393039809B0BDE8F08FCF
:10295000D0A5020038A602005CA1020050A6020029
:1029600008A6020020A602002DE9F04104460D460B
:10297000C36908469847804604F114064FF02003C7
:10298000EFF3118783F31288BFF36F8F30461AF08D
:1029900025FD90B130461AF041FD2B7843F001033C
:1029A0002B70636803EB0800236913F0010F13D148
:1029B000636A984213D3C01A11E0184C8823224648
:1029C000174918481FF040FD314617481FF03CFDDD
:1029D000882120461FF031FD636A013B184060608A
:1029E00020461FF077FD30461AF008FD28B187F326
:1029F0001188BFF36F8FBDE8F081084C40F23113AE
:102A000022460A4907481FF01FFD314608481FF0BB
:102A10001BFD40F2311120461FF00FFDD0A5020032
:102A200038A602005CA1020050A6020008A602001F
:102A300020A602002DE9F04182B0044642E04B4C52
:102A4000882322464A494B481FF0FEFC29464A4843
:102A50001FF0FAFC882120461FF0EFFC53F82200FB
:102A600080085ED154E0626A013A1340A3602046B8
:102A70001FF043FD1BE013F8221041F0020103F8A0
:102A80002210A768E369404698473844236913F049
:102A9000010F04D1636A984204D3C01A02E0636A4A
:102AA000013B1840A060002701E00027B8462846F7
:102AB0001AF0A4FC002843D086F31188BFF36F8F6F
:102AC000002F4ED004F114054FF02003EFF31186D0
:102AD00083F31288BFF36F8F28461AF07FFC0746F6
:102AE0000028ACD028461AF099FC01A920461FF016
:102AF000CDFC236AA26803EB820801990029D4D097
:102B000013F8221011F0030117D00229A6D00020DB
:102B100013F8221011F0010FADD110B9E36940464E
:102B20009847A36801460344226912F0010F9AD125
:102B3000626A93429AD39B1A98E70027B846B6E791
:102B40000A4C40F2311322460C490A481FF07CFC23
:102B500029460B481FF078FC40F2311120461FF047
:102B60006CFC404602B0BDE8F08100BFD0A5020079
:102B700038A602005CA1020050A6020008A60200CE
:102B800020A602002DE9F04104460D46C36908461F
:102B90009847064604F114074FF02003EFF311881D
:102BA00083F31288BFF36F8F38461AF017FCA8B171
:102BB00038461AF033FC2B786FF300032B7023692F
:102BC00013F0020F19D0236AE26803EB8203AB42D1
:102BD00013D02B6866F39F032B601AE0244C8823E4
:102BE0002246244924481FF02FFC394623481FF071
:102BF0002BFC882120461FF020FC2B786FF341032B
:102C00002B70E268A3689A4211D0314620461FF02B
:102C100074FC38461AF0F2FBC0B188F31188BFF398
:102C20006F8F04F12C001AF0F5FEBDE8F0813344FB
:102C3000226912F0010F04D1626A934204D39B1AF5
:102C400002E0626A013A1340A360DEE7084C40F2FA
:102C5000311322460A4908481FF0F6FB3946094855
:102C60001FF0F2FB40F2311120461FF0E6FB00BFDF
:102C7000D0A5020038A602005CA1020050A6020006
:102C800008A6020020A60200B0B582B000AF48B18D
:102C90008368002B44D01B68002B7FD098470837EF
:102CA000BD46B0BD6C4688B06B4613F1100231D002
:102CB0000C2142B10846042901DD394D5D61082827
:102CC00001DD384898610B2927DD4FF00C0C3AB133
:102CD0000321397100217971B971F971786818612E
:102CE00000216FF300016FF341016FF382016FF375
:102CF000C501012363F38811CCF30A0C6CF3532153
:102D00006FF31F510023284801F084FAA5466FF0A5
:102D10001500C4E76FF00041CBE76FF01B0CD6E75E
:102D20006C4688B06B4613F1100231D00C2142B1D1
:102D30000846042901DD1D4D5D61082801DD1948A3
:102D400098610B2927DD4FF00C0C3AB10321397142
:102D500000217971B971F9717868186100216FF3F8
:102D600000016FF341016FF382016FF3C50101238D
:102D700063F38811CCF30A0C6CF353216FF31F51EA
:102D80000023094801F046FAA5466FF0040086E7E3
:102D90006FF00041CBE76FF01B0CD6E700207EE719
:102DA000E0A60200F4A70200E49B0200F8A60200DD
:102DB000B0B582B000AF48B18368002B44D05B68E7
:102DC000002B7FD098470837BD46B0BD6C4688B011
:102DD0006B4613F1100231D00C2142B10846042990
:102DE00001DD394D5D61082801DD384898610B2906
:102DF00027DD4FF00C0C3AB10321397100217971B4
:102E0000B971F9717868186100216FF300016FF3EF
:102E100041016FF382016FF3C501012363F3881150
:102E2000CCF30A0C6CF353216FF31F510023284895
:102E300001F0F0F9A5466FF01500C4E76FF000410E
:102E4000CBE76FF01B0CD6E76C4688B06B4613F1EE
:102E5000100231D00C2142B10846042901DD1D4D7C
:102E60005D61082801DD194898610B2927DD4FF0C5
:102E70000C0C3AB10321397100217971B971F971E2
:102E80007868186100216FF300016FF341016FF35F
:102E900082016FF3C501012363F38811CCF30A0C9F
:102EA0006CF353216FF31F510023094801F0B2F96D
:102EB000A5466FF0040086E76FF00041CBE76FF0A6
:102EC0001B0CD6E700207EE7E0A60200D8A7020090
:102ED000E49B0200F8A60200B0B582B000AF80B15A
:102EE000034671B16AB18068002847D0C468002CDD
:102EF00044D041F8043BC4681846A0470837BD4693
:102F0000B0BD6D4688B06B4613F1100230D00C2175
:102F100042B10846042901DD374C5C61082801DD17
:102F2000364898610B2926DD0C243AB1032139710A
:102F300000217971B971F9717868186100216FF316
:102F400000016FF341016FF382016FF3C5010123AB
:102F500063F38811C4F30A0363F353216FF31F5122
:102F60000023274801F056F9AD466FF01500C5E77C
:102F70006FF00041CCE76FF01B04D6E76D4688B0D8
:102F80006B4613F1100230D00C2142B108460429DF
:102F900001DD1C4C5C61082801DD184898610B2993
:102FA00026DD0C243AB10321397100217971B97100
:102FB000F9717868186100216FF300016FF3410126
:102FC0006FF382016FF3C501012363F38811C4F32A
:102FD0000A0464F353216FF31F510023084801F0E2
:102FE00019F9AD466FF0040088E76FF00041CCE7B7
:102FF0006FF01B04D6E700BF1CA70200B8A70200B1
:10300000E49B0200F8A60200B0B582B000AF90B118
:103010000446006800284BD08368002B00F08580B0
:103020001B69002B00F081806168984700B920601F
:103030000837BD46B0BD6D4688B06B4613F110022F
:1030400030D00C2142B10846042901DD554C5C61A9
:10305000082801DD544898610B2926DD0C243AB17B
:103060000321397100217971B971F971786818619A
:1030700000216FF300016FF341016FF382016FF3E1
:10308000C501012363F38811C4F30A0464F35321D7
:103090006FF31F510023454801F0BCF8AD466FF0B7
:1030A0001500C5E76FF00041CCE76FF01B04D6E7D1
:1030B0006D4688B06B4613F1100230D00C2142B13E
:1030C0000846042901DD3A4C5C61082801DD3648D8
:1030D00098610B2926DD0C243AB1032139710021B6
:1030E0007971B971F9717868186100216FF3000185
:1030F0006FF341016FF382016FF3C501012363F3A5
:103100008811C4F30A0464F353216FF31F510023A1
:10311000264801F07FF8AD466FF0010088E76FF0B8
:103120000041CCE76FF01B04D6E76D4688B06B46D4
:1031300013F1100230D00C2142B10846042901DD00
:103140001C4C5C61082801DD174898610B2926DDBD
:103150000C243AB10321397100217971B971F971E7
:103160007868186100216FF300016FF341016FF37C
:1031700082016FF3C501012363F38811C4F30A04CC
:1031800064F353216FF31F510023084801F042F804
:10319000AD466FF004004BE76FF00041CCE76FF0F5
:1031A0001B04D6E74CA7020098A70200E49B02008C
:1031B00064A70200F8A60200B0B582B000AF98B1D3
:1031C00013468446006800284BD08268002A00F02D
:1031D00085809468002C00F081800A46DCF8041099
:1031E000A0470837BD46B0BD6D4688B06B4613F1A9
:1031F000100230D00C2142B10846042901DD564CA2
:103200005C61082801DD554898610B2926DD0C24F6
:103210003AB10321397100217971B971F971786876
:10322000186100216FF300016FF341016FF3820118
:103230006FF3C501012363F38811C4F30A0464F337
:1032400053216FF31F510023454800F0E3FFAD46C3
:103250006FF01500C5E76FF00041CCE76FF01B047D
:10326000D6E76D4688B06B4613F1100230D00C21C2
:1032700042B10846042901DD3A4C5C61082801DDB1
:10328000364898610B2926DD0C243AB103213971A7
:1032900000217971B971F9717868186100216FF3B3
:1032A00000016FF341016FF382016FF3C501012348
:1032B00063F38811C4F30A0464F353216FF31F51BD
:1032C0000023274800F0A6FFAD466FF0010088E715
:1032D0006FF00041CCE76FF01B04D6E76D4688B075
:1032E0006B4613F1100230D00C2142B1084604297C
:1032F00001DD1D4C5C61082801DD184898610B292F
:1033000026DD0C243AB10321397100217971B9719C
:10331000F9717868186100216FF300016FF34101C2
:103320006FF382016FF3C501012363F38811C4F3C6
:103330000A0464F353216FF31F510023084800F07F
:1033400069FFAD466FF004004BE76FF00041CCE73A
:103350006FF01B04D6E700BF4CA7020084A7020051
:10336000E49B020064A70200F8A6020050B100B579
:1033700083B00B460092826A416A18F047FD03B0A1
:103380005DF804FB004870472DF8FFFF006900F569
:103390005973D3E8AF3F022B11D110B50C4689B158
:1033A0000A4900F52C701AF03DFF204625F026FB57
:1033B00070220021204626F0C4F9002010BD6FF0D5
:1033C0000F0070476FF00100F8E700BF54190020AC
:1033D0000023002B01DD00207047044A12681AB94F
:1033E000024A5268002111600133F2E78401002093
:1033F00008B502491FF073FA08BD00BFB0130300FF
:1034000030B585B004460D460B490291D0F8AC1199
:10341000019100934FF0FF3300F1E001284618F0CE
:1034200037FD38B9012385F86430D4F8A8310BB1E1
:103430002846984705B030BDD728020060B100B5D6
:1034400083B00B46012101910092826A416A18F013
:10345000B9FC03B05DF804FB004870472DF8FFFF8E
:1034600008B58446084611461A46DCF8103003F5C4
:103470005973D3E8AF3F022B07D14AB158B1FFF7D8
:10348000DDFF084B984209D008BD6FF00F00FBE745
:103490006FF04C00F8E76FF00100F5E76FF00B00FC
:1034A000F2E700BF2EF8FFFF10B5044600220449E2
:1034B000FFF7C4FFA36E1B680BB1E06E984710BD09
:1034C000B0130300F0B583B044680569E369012BCC
:1034D0001FD0276A05F5307630461AF04BFF606A38
:1034E000002300933B464FF480620E4901EB80219C
:1034F00030461AF059FF0C4905F52C701AF0B6FD4C
:1035000014342A46094920461FF01DF920B103B0A2
:10351000F0BD276A103FDDE7012120461FF022F9A8
:10352000F5E700BF583300204F2C02003F2C02006B
:103530002DE9F04385B004464668056905F55979DB
:103540000123D9E8EF2F002A03D1C9E8E13F002980
:10355000F7D152D105F5E478314640461FF037FBEC
:10356000074650B10023D9E8EF2FC9E8E13F002911
:10357000F9D1384605B0BDE8F083214BC5F8A83233
:10358000C5F8A4623168404600F04AF907460028B1
:10359000E8D12046FFF796FF07460028E2D1194BF5
:1035A000C5F8A831184BC5F8AC31B26AD5F8683205
:1035B000D5F8601315480390D5F810020290D5F89D
:1035C00008020190CDF80080284600F081F80746F7
:1035D0000028C7D105F1E00018F014FEC5F8680313
:1035E000002807DB0223D9E8EF2FC9E8E13F0029D3
:1035F000BFD0F8E76FF01507B4E76FF07707B8E7CB
:10360000C3270200A9340000AB2A0200A929020046
:103610002DE9F04385B007460E469146D0F8B080BC
:10362000002400E00134012C28D8A8F5CE71C4EBA9
:10363000C40501EB0515C4EBC4031B014033194459
:103640003046FCF7F1FE0028ECD10E4B0293D8F87F
:1036500010300193CDF800904FF0FF3332463946D9
:10366000284618F015FC48B9012185F86410D8F8EF
:103670000C30002BD6D028469847D3E705B0BDE8DC
:10368000F08300BF952C0200C8B110B584B0144679
:103690000346BAB1E030012902D0002004B010BDC9
:1036A0000A4A0292D3F8AC3101934FF0FF330093F2
:1036B00004F140020146204618F0EAFBEEE76FF005
:1036C000150070476FF01500E8E700BF952C020069
:1036D0002DE9F04186B01E460D9B0F9C48B3054670
:1036E00053B3D4B1D9B903AF0391049105910392B7
:1036F000049205F5CE780E9A1946404625F036FB21
:103700000197CDF80080334622460C9905F1E00080
:1037100018F08EFD06B0BDE8F081094CE2E7002309
:103720000093334622460C9905F1E00018F0B0FEF4
:10373000F0E76FF01500EDE76FF01500EAE700BF66
:103740001136000010B584B00446114A02AB92E86D
:10375000030083E80300184618F012FA08B104B019
:1037600010BD04F1340018F0E7F90028F7D101AAE0
:103770000849094824F01FFD0028F0D1019B9A68F0
:103780001AB10C33C4F8A030E9E70023FAE700BF10
:103790006C9C020050A802005CA8020038B50446E8
:1037A0000D46D0F894001FF0B5FAC4F8D40078B3F1
:1037B000D4F894001FF0AEFAC4F8D80058B3D4F887
:1037C000A010C4F8B810D4F88C30C4F8A830B4F8FD
:1037D0009420A4F8B0200423C4F8AC30D4F8D4C0AA
:1037E000C4F8A4C0C4F8D010D4F89010C4F8C01025
:1037F000A4F8C820C4F8C430C4F8BC00A5610223F2
:10380000A362064B236204F1A403E362002038BDE7
:103810006FF00B00FBE76FF00B00F8E764A8020005
:1038200010B330B585B00D460446114B43630123F8
:10383000C363D0F8981001630023029301934FF003
:10384000FF330093D0F89C3000F13002403024F078
:10385000DBFC2046FFF776FF08B105B030BD2946F6
:103860002046FFF79BFFF8E76FF01500704700BF99
:1038700050A8020010B143685879704710B5064C43
:1038800040F233132246054905481EF0DDFD40F2A3
:10389000331120461EF0D1FD90A80200D4A80200EA
:1038A0005CA1020010B520B10268D26802B1904755
:1038B00010BD054C8B232246044905481EF0C4FD6B
:1038C0008B2120461EF0B9FD90A80200D4A802006A
:1038D0005CA1020010B520B10268126962B1904784
:1038E00010BD064C9E232246054906481EF0ACFD3D
:1038F0009E2120461EF0A1FD0020F1E790A80200C5
:10390000D4A802005CA1020010B518B10268926848
:10391000904710BD054CD0232246054905481EF0AE
:1039200093FDD02120461EF088FD00BF90A8020024
:10393000D4A802005CA1020010B520B10268526850
:1039400002B1904710BD054CC223224604490548E8
:103950001EF07AFDC22120461EF06FFD90A80200E5
:10396000D4A802005CA1020010B520B171B10268B8
:103970001268904710BD0B4CB22322460A490B48EF
:103980001EF062FDB22120461EF057FD054CB32308
:103990002246074905481EF057FDB32120461EF078
:1039A0004CFD00BF90A80200D4A802005CA1020058
:1039B000ECA8020038B50546144C00E01034144B56
:1039C0009C4212D8124B9C421FD22046FFF752FF56
:1039D0000028F3D0294620461FF003FA0028EDD036
:1039E00029462046FFF7C0FFE8E70A4C40F2D11312
:1039F0002246094909481EF027FD09481EF024FD0A
:103A000040F2D11120461EF018FD38BD3C9C02004A
:103A10004C9C020000A9020038A902005CA102002F
:103A20005CA9020010B530B10346006884690CB18E
:103A30001846A04710BD064C4FF4B1732246054905
:103A400005481EF001FD4FF4B17120461EF0F5FC53
:103A500090A80200D4A802005CA1020070B506463E
:103A60000D460F4C05E02A4631462046FFF7DAFFA7
:103A700010340C4B9C4203D80A4B9C42F3D370BDCC
:103A8000094C40F25F332246084909481EF0DCFC2D
:103A900008481EF0D9FC40F25F3120461EF0CDFCF4
:103AA0003C9C02004C9C020000A9020038A90200C4
:103AB0005CA102005CA902002DE9F0410746054621
:103AC000EDB195FAA5F6B6FA86F60E4C04EB06149F
:103AD0000123B3406FEA030825EA0305237B002B8B
:103AE000EED02046FFF7F6FE0028E9D107EA0807E6
:103AF000636804221968204600F05EFBE0E7384660
:103B0000BDE8F0813C9C02002DE9F0412F4B304A8A
:103B10009B1A9F2B0ED880460F462E4BD3E8EF5FA3
:103B20006A1CC3E8E12F0029F8D1002D4AD1284CA6
:103B3000002614E0284C40F2251322462749284845
:103B40001EF082FC40F2251120461EF076FC6368D0
:103B500004221968204600F02FFB013610341B4B5D
:103B60009C4211D8194B9C421ED2237B002BF5D0CE
:103B70002046FFF797FE2046FFF7ACFE0028E6D070
:103B80000123B3401D43E8E7134C4FF499732246D9
:103B9000144913481EF058FC13481EF055FC4FF40E
:103BA000997120461EF049FCB8F1000F0BD055B1B9
:103BB0002846FFF781FF0546002FF8D00A201FF0A6
:103BC00016F9F4E700252846BDE8F0814C9C020078
:103BD0003C9C02009419002000A902007CA902006C
:103BE0005CA1020038A902005CA9020008B5064BDE
:103BF000186018B1054B1B68092B00DC08BD044890
:103C000019F008FFFAE700BF88190020901900207A
:103C1000F406002008B5024819F0FCFE08BD00BFFC
:103C2000F406002030B589B000220F490F4825F076
:103C300033FC0F4D00220023CDE906230024049419
:103C40000E2303930294019400940A4B4FF40062F4
:103C50000949284619F01EFB0849284625F070F945
:103C6000204609B030BD00BF153C000040110020C7
:103C7000B80C00207540000058370020A0A90200B1
:103C8000014B53F820007047D8A9020048B108B58D
:103C9000054A1060054B1960084600F049FE0020F7
:103CA00008BD6FF015007047B00100208419002096
:103CB00008B5054B1B781BB1034B01221A7008BDD8
:103CC000024819F0A7FEF7E7482B0020F406002071
:103CD000094BD3E8EF1F0131C3E8E21F002AF8D1F6
:103CE00000B97047054BD3E8EF1F0139C3E8E21F65
:103CF000002AF6D0F7E700BF8C19002090190020A9
:103D0000044B00200146D3E8EF0FC3E8E21F002A6E
:103D1000F9D170478C19002038B5FFF7F1FF05463F
:103D2000114C00E01034114B9C420CD80F4B9C42BC
:103D300019D22046FFF79EFD0028F3D029462046E1
:103D4000FFF7FAFDEEE70A4C40F2DD13224609497F
:103D500009481EF079FB09481EF076FB40F2DD11A0
:103D600020461EF06AFB38BD3C9C02004C9C0200C1
:103D700000A9020038A902005CA102005CA90200AF
:103D8000034B18680028D4BF00200120704700BFF3
:103D90008C19002010B5044C04492046FEF7A0FC05
:103DA000034B1C6010BD00BF68050020C4A90200C1
:103DB0008019002008B50023064A1370064A1360D4
:103DC000064A13604FF400410548FFF75FFFFFF715
:103DD000E1FF08BD492B00208C190020901900201C
:103DE000E72D020008B5014601481FF016F808BD8E
:103DF0006805002008B50248FEF71CFE08BD00BF9C
:103E00006805002008B50146024B18681FF00BF842
:103E100008BD00BF8019002008B502481FF007F850
:103E200008BD00BF6805002010B582B00022002345
:103E3000CDE90023264B187808B902B010BD6846BA
:103E40001FF00DF8044668B1224BD3E8EF1F01398B
:103E5000C3E8E21F002AF8D12046FFF7ABFD204659
:103E6000FFF7D0FFFFF78CFF58B91B4A1368516862
:103E700013F57A7341F1000113605160FFF7CCFF35
:103E8000DBE725F099FA4A0142EAD06243011B1AA6
:103E900062EB0102920042EA93729B001B1842EB14
:103EA0000102D20042EA5372C3F3103343EA4243A1
:103EB000D20B0948016840685B1A62EB000240F2CD
:103EC000E9318B4272F10002CFD3FFF725FFCCE737
:103ED000482B00209019002038110020194B1B7826
:103EE00003B1704710B500210120FFF70DFE164CFD
:103EF00000E01034154B9C420BD8144B9C4218D256
:103F00002046FFF7B7FC0028F3D02046FFF7FCFC63
:103F1000EFE70F4C4FF4CA7322460E490E481EF0CD
:103F200093FA0E481EF090FA4FF4CA7120461EF024
:103F300084FAFFF779FF0028FBD1024B01221A70A7
:103F400010BD00BF492B00203C9C02004C9C02008D
:103F500000A9020038A902005CA102005CA90200CD
:103F600030B583B02F4BD3E8EF2F511CC3E8E01FCF
:103F70000028F8D12C4B1B786BB92C4B1B6823B352
:103F8000002A44D0092A20D1294825F091FA29484D
:103F900019F040FD19E04FF02003EFF3118483F393
:103FA0001288BFF36F8F244819F018FA78B1224DA8
:103FB000284619F033FAFFF737FF284619F01EFAA2
:103FC000A0B184F31188BFF36F8F03B030BD1B4CD9
:103FD000882322461A491B481EF036FA16491A4809
:103FE0001EF032FA882120461EF027FA134C40F2C8
:103FF00031132246154913481EF026FA2946144863
:104000001EF022FA40F2311120461EF016FA00226C
:104010000023CDE900234FF40042002304481CF0A4
:104020001BFCD2E790190020492B002088190020A2
:1040300040110020F40600207C190020D0A50200C9
:1040400038A602005CA1020050A6020008A60200E9
:1040500020A6020010B50446044B1B689847A060D8
:10406000214603481EF0FFFE10BD00BFB001002036
:10407000680500202DE9F041234B244A9B1A1B09B7
:1040800010D000210846FFF73FFD8046B8B140F24E
:104090006766002725F066FB1D4B1858FFF7A6FD45
:1040A000002525E01B4C40F26B3322461A491B4881
:1040B0001EF0CAF940F26B3120461EF0BEF94FF0F7
:1040C000FF364FF0FF37E5E74046FFF7F5FC804647
:1040D00088B94FF0FF364FF0FF370CE0002108465B
:1040E000FFF7BCFC32463B460D4819F0D9FC25468B
:1040F000B8F1000FE8D1FFF797FE04460028F6D18B
:10410000002DEBD12C46EDE74C9C02003C9C0200BC
:104110000800000000A90200A8A902005CA102009A
:10412000F406002010B143681971704710B5054CB2
:10413000DF232246044905481EF086F9DF21204688
:104140001EF07BF990A80200D4A802005CA1020036
:1041500028B142681160436801225A71704710B556
:10416000064C4FF48C732246054906481EF06CF944
:104170004FF48C7120461EF060F900BF90A8020039
:10418000D4A802005CA102000248034BC01AC00878
:10419000704700BF3C9C02002C9B020010B50C46EF
:1041A000FFF7F2FFA04203D9024B53F8340010BDD1
:1041B0000020FCE72C9B020070B504460D46164615
:1041C000074BC31A1B110133D9B2FFF7ABFF63686A
:1041D0009E7129462046FFF7BBFFFFF769FD70BDC2
:1041E0003C9C020000B589B005920693002307931A
:1041F00062B1074A0C9B02930B9B01930A9B0093AD
:1042000005ABFDF7E5F909B05DF804FB0022F1E725
:10421000772E02002DE9F04F8BB004AF05461E4605
:104220008846C1F34A24002C00F09C80914600226D
:10423000FA603A617A6104230293FB1801930A231E
:10424000009307F10C0321464846FDF7C1F9B0F58C
:10425000006F5DD3D9F804106D4601233B7303232F
:104260007B738AB004AC14F110021CD0162042B14A
:104270000346042801DD454E6661082B01DD444BF1
:10428000A36101233B7003237B70CAB103460C2852
:1042900000DDE161102B02DD40F2FF73236204F1C7
:1042A000240300210AE06FF00040E0E701F1180666
:1042B0003E4416F8186C03F8016B01310129F5D959
:1042C000152822DD162342B10521397300217973A7
:1042D000B9730121F973F868206100216FF30001BF
:1042E0006FF341016FF382016FF3C501022060F3A8
:1042F0008811C3F30A0363F353210023C1F31301AD
:1043000024481EF0E5FDAD463BE06FF01B03DAE705
:1043100060F35328C0F30A0A0AEB1850173020F054
:1043200007008008FFF75EFD834620B30423029355
:10433000FB1801930A230093534600F11002214613
:104340004846FFF74FFF002815DA134C4FF48573EA
:104350002246124912481EF077F84FF48571204624
:104360001EF06BF804EB1154173424F00704A00876
:10437000FFF738FD834633464246294658461EF02D
:1043800090FD1C37BD46BDE8F08F00BF4CAA02006F
:10439000E0AA0200EC9B020090AA0200C8AA020058
:1043A0005CA102002DE9F04F85B080460D4617460E
:1043B0001E46DDF838A0DDF84090B9F1000F47D077
:1043C000119B039300934B460F9A10210020FCF79A
:1043D0005DFE031E2FDB9B4603EB0A00173020F027
:1043E000070000246FF300046FF341046FF38204AD
:1043F00068F3C50467F3881463F353246AF31F5406
:104400008008FFF7EFFC074660B11030B9F1000FEC
:1044100008D0119B00934B460F9A5946FCF736FE85
:10442000002817DB33462246294638461EF039FD60
:1044300005B0BDE8F08F0E4C4FF4957322460D4940
:104440000D481EF001F84FF4957120461DF0F5FF60
:104450000023C0E7064C4FF4A273224605490648E4
:104460001DF0F2FF4FF4A27120461DF0E6FF00BFE1
:1044700090AA0200D4AA02005CA102000EB400B50A
:1044800082B0014603AB53F8042B0193034802F0BA
:10449000F9FF02B05DF804EB03B070475D47000020
:1044A00030B585B011F0440F05D01A4B1C6834B9F3
:1044B000002005B030BD1849FFF7E0FFF9E7174BC2
:1044C0001968B2FBF1F1B1FBF4FC154AA2FB0C3206
:1044D000D20A4FF4616E0EFB12CE124BA3FB0E53A9
:1044E0005B0904FB1C114FF47A7C0CFB01F1B1FB5E
:1044F000F4F504FB15110CFB01F1B1FBF4F1029191
:104500000195C3EB0311AEEB810100910649FFF762
:10451000B5FFCEE79C19002000AB020098190020DF
:10452000C5B3A291898888880CAB020061B108B537
:104530002AB1064A52F8232012B9054A00E0044A7B
:104540000449FFF79BFF08BD704700BF28AC02007D
:1045500028AB020030C302002DE9F04105461746A2
:10456000069EDDF81C8099B900242EB1324612490E
:104570002846FFF783FF0444B8F1000F17D087B136
:104580000123099A934013F01E0F13D10B4909E040
:104590000B4B099A53F822200A49FFF76FFF044694
:1045A000E3E7064942462846FFF768FF04442046F1
:1045B000BDE8F0810449F5E744AB020034AB0200EA
:1045C0003CAC02003CAB020030AB02002DE9F04FE6
:1045D00087B005939DF84C70042F2AD805460C46E9
:1045E000164601F0020B01F0010AC1F3C0091EF0EA
:1045F00040FC024650B31A492846FFF73FFF804669
:10460000BBF1000F25D13A46514628461EF071FCF9
:104610000397129B0293119B0193109B009300231D
:10462000324649462846FFF797FF404407B0BDE8A9
:10463000F08F0C4C40F2BF1322460B490B481DF083
:1046400003FF40F2BF1120461DF0F7FE4FF00008B7
:10465000D6E7059A21462846FFF722FF8044D2E795
:104660008CAB020048AB020080AB02005CA10200F0
:1046700011F0100F0BD108B511F0200F03D0044931
:10468000FFF7FCFE08BD0349FFF7F8FEFAE77047A5
:10469000E8B80200601703002DE9F04105460F4617
:1046A000164698460699FFF7E3FF0024444505DACD
:1046B00024492846FFF7E2FE0134F7E7002409E029
:1046C00020492846FFF7DAFE0BE01F492846FFF78E
:1046D000D5FE01340F2C0CDC002C02DD14F0070F8A
:1046E000EED0B442F1D23A5D18492846FFF7C6FE33
:1046F000EFE717492846FFF7C1FE002409E01149FA
:104700002846FFF7BBFE0BE012492846FFF7B6FE2E
:1047100001340F2C13DC002C02DD14F0070FEED057
:10472000B44207D23A5D0C4B9B5C13F0970FEBD170
:104730002E22E9E703492846FFF7A0FEE8E7BDE897
:10474000F08100BF40AB020098AB020090AB0200CA
:104750009CAB0200A0AB02008517030038B50546EC
:104760000C464B681A68CB689A4210D06368D3E84D
:10477000EF2F511CC3E8E01F0028F8D1A3689D5417
:1047800063681A68E3689A4205D8002038BD084675
:104790001EF0E2FBEAE7054C7A232246044905486D
:1047A0001DF052FE7A2120461DF047FE48AB020064
:1047B000A4AB02005CA102002DE9F04184B00446E4
:1047C0009DF82C500C9F0E9EA5B9012B20D020489F
:1047D0004FF0000837B13B4622461E491DF098FABB
:1047E000002819DB2EBB6DBB20461EF0B5FB04B0C4
:1047F000BDE8F08103950A980290019300920B4660
:1048000000220F992046FFF7E1FE80461248E1E7BB
:1048100011484FF00008DDE7104C40F21923224602
:104820000F4910481DF010FE40F2192120461DF0DE
:1048300004FE0F9B0093434632460D9920461EF01E
:1048400070FBD0E72A460F9920461EF05EFBCBE7AF
:10485000732F0200857400005D47000048AB020022
:10486000D4AB02005CA102002DE9F04387B00646FC
:104870000C469046D1F808900F88C7F38217087845
:10488000C0F3C2004B6833B11249591A41F3CF014A
:1048900000291ADA0023214651F8105BC5F34A2596
:1048A0006288C2F30B12481905B90021CDF81480B3
:1048B00004920390029101970022009249463046EB
:1048C000FFF77AFF07B0BDE8F083FFF767FC034608
:1048D000E1E700BF2C9B020070B582B0044605687A
:1048E00042F20F738B4228BF0B460E4A05216846E1
:1048F0001CF00AFF064663685B680B220A492846DB
:104900001EF0EAFA63685B683246694628461EF084
:10491000E3FA63685B681B22044928461EF0DCFA50
:1049200002B070BD78A00200FCAB0200E0AB020058
:10493000074B01221A6004E04008054A13685B0037
:104940001360044B9842F7D8034B1860704700BFC0
:104950009819002040420F009C190020034B0122AF
:104960001A70034B034A1A60704700BF4A2B00209D
:10497000C8190020CC190020014B19600020704795
:10498000B419002008B518B9074B00221A7008BDE9
:10499000064B1B7823B141F2883024F064FAF6E725
:1049A00005201EF0F5FAF2E74A2B00204B2B0020E1
:1049B00038B504460A4B01221A700A4B1B782BB9F2
:1049C00038BD651E2046FFF7DDFF2C46002017F09E
:1049D00045FE0028F4D0024B1B78002BF1D1EFE705
:1049E0004A2B00204B2B0020F8B506460D46042725
:1049F0000DE02A463146002017F092FD044614E0EF
:104A00003846FFF7D5FFDCB9114B1B78C3B1114B0A
:104A10001B78002BEDD117F031FE2A4631460020DD
:104A200017F07EFD044617F035FE002CE8D1084B48
:104A30001B78002BE7D0013F3846FFF7A3FFE2E7E2
:104A400014B9034B1B7803B92C462046F8BD00BFB0
:104A50004A2B00204B2B002008B5034B01221A7073
:104A600002481EF079FA08BD4B2B00207CAC0200F6
:104A700008B50248FFF730FF08BD00BF7CAC02005C
:104A800010B50C46044B1868FFF7FAF803460F22DE
:104A900021460248984710BDB41900207CAC0200A2
:104AA000014B0360002070478CAC020008B5044B3A
:104AB0009B681BB1481E18BF0120984708BD00BF66
:104AC000E419002010B51C46034B1B6813B11146B6
:104AD00022469847204610BDE419002008B5024B35
:104AE0005B6803B1984708BDE419002030B1016844
:104AF000034A1160416851608368936000207047E9
:104B0000E419002010B586B00023009301930293AE
:104B10000393049305930D4B01930291ADF80C2080
:104B20000B4B049358B10446012208490DF0ECFBED
:104B300048B1694620460EF0FDF806B010BD694642
:104B40000EF0F8F8F9E76FF01500F6E7B4AC0200E4
:104B5000DD4A000070B48DB006460D460DF1040C20
:104B60002B4C0FCCACE80F000FCCACE80F0094E856
:104B700007008CE80700002E45D03046002D44D0B9
:104B800000230FE015F8234005EB83014A78120457
:104B900042EA04628C7842EA0422C9780A4340F867
:104BA00023200133032BEDD906E0191F50F8211003
:104BB0004A4040F8232001332B2B20D85A1E50F8AE
:104BC000222013F0030FF0D14FEA3262110E114C84
:104BD000655CC2F30741615C090441EA0561C2F307
:104BE0000725655D41EA0521D2B2A25C114323F09D
:104BF000030230326A4452F82C2C4A40D5E7012097
:104C00000DB070BC70470020FAE70020F8E700BF45
:104C1000749C02000CAD020000284ED070B584B028
:104C20001546064600294AD0002A4AD010230A46D3
:104C3000194668461EF0C2F9294668461EF0D8F9A2
:104C4000002414E01DF803101F48415C0DF8031008
:104C500001330F2BF6D968461EF00BFA68461EF09A
:104C600082FA013405EB041168461EF0C1F9082CE4
:104C700001D80023EDE7002306E01DF803201249C8
:104C80008A5C0DF8032001330F2BF6D968461EF01D
:104C9000F0F9611C05EB011168461EF0A9F910231B
:104CA0006A46194630461EF089F9102200216846EE
:104CB0001EF091F9012004B070BD00207047002063
:104CC000F9E70020F7E700BF0CAD02002DE9F04F37
:104CD00095B003910568D0F804808768D0F80CB0CF
:104CE0000469D0F814A0D0F81890D0F81CC00026A1
:104CF000CDF804B0E346029030E003A81EF05EFB5E
:104D000014AB03EB860343F8400C4FEAF42383EA29
:104D1000B41383EA74635B4404EA0A0229EA0401D7
:104D20004A4013444E4A52F82620134418444FEA8E
:104D3000753383EAB50383EAB55388EA07022A404C
:104D400008EA07014A4013440136CB46D146A24641
:104D5000019C044401974746A846C5180F2ECCD99C
:104D6000DC46DDF804B03F2E5ED806F1010E0EF0F1
:104D70000F0314AA02EB830353F8402C4FEAB2430B
:104D800083EAF21383EAD20306F10E0202F00F0265
:104D900014A901EB820252F8401C4FEAF14282EA68
:104DA000714282EA912206F00F0114A800EB810102
:104DB00051F8400C0190134406F1090202F00F0271
:104DC00014A800EB820252F8402C1344019A1344B9
:104DD00041F8403C4FEAF42282EAB41282EA74625B
:104DE000624404EA0A0129EA040041400A441C49D9
:104DF00051F826100A4413444FEA753282EAB5028C
:104E000082EAB55188EA07022A4008EA07004240D0
:104E10000A447646CC46D146A2460BEB0304BB4679
:104E20004746A8469D189EE7029803682B440360F6
:104E300043684344436083683B448360C3685B4486
:104E4000C360036923440361436953444361836935
:104E50004B448361C3696344C36115B0BDE8F08FFF
:104E60000CAE0200E0B110B50446702200211EF025
:104E7000B2F80C4B23600C4B63600C4BA3600C4BE3
:104E8000E3600C4B23610C4B63610C4BA36103F19A
:104E90007453A3F52303A3F69243E361012010BDED
:104EA0000020704767E6096A85AE67BB72F36E3C07
:104EB0003AF54FA57F520E518C68059BABD9831FE5
:104EC00008B502481CF0DEFA08BD00BF0CAF0200B6
:104ED000B0F5680F17D00CD840F6BA63984214D0DA
:104EE000B0F5683F13D03A2801D001207047002068
:104EF0007047094B98420CD0084B984201D00120D2
:104F00007047002070470020704700207047002045
:104F100070470020704700BF3A00003A2C5F5CA940
:104F200028B308B54368B3F5683F0AD0B3F5680FF6
:104F300014D012498B421FD0006818F0B9FB002032
:104F400014E003680022D3E8EF1F012903D1C3E86E
:104F5000E02F0028F7D10DD1104607E003681B7839
:104F600003F580730020064A42F8230008BD6FF461
:104F7000E04070470348F9E70348F7E72C5F5CA976
:104F800000000350E98FFFFFEA8FFFFF88B308B5E9
:104F90004368B3F5683F0FD0B3F5680F19D01649D1
:104FA0008B4224D000684FF0FF324FF0FF3318F0EF
:104FB00063FA68B111480BE003680122D3E8EF1FE0
:104FC000002903D1C3E8E02F0028F7D10BD100203E
:104FD00008BD03681B7803F58073094A52F8233033
:104FE0001BB90020F4E70548F2E70448F0E705485C
:104FF000EEE76FF4E04070472C5F5CA9E98FFFFF9C
:1050000000000350EA8FFFFF10B50446B0B163689B
:10501000B3F5683F11D0B3F5680F0ED00D4A934237
:105020000BD013F4686F0ED1236800221A605A6007
:105030009A60DA601A61074B636010BD064B5B68CB
:1050400006489847E3E72168054818F02DF8002343
:105050002360F0E72C5F5CA9F804002014AF020085
:10506000F01E002010B5044668B36068B0F5683FD4
:1050700028D0B0F5680F25D0174B984228D0FFF7FD
:1050800027FFC0B14FF0FF324FF0FF3321461348E6
:1050900017F096FF08B923681BB9114B5B681148DC
:1050A0009847236800221A605A609A60DA601A6191
:1050B0004FF468636360206823F06CFF636843F01B
:1050C0003A03636010BD064B5B6807489847CCE71E
:1050D0002368002BD3D1D5E72C5F5CA9F01E0020FC
:1050E000F80400203CAF020014AF020008B54023D2
:1050F00014220449044823F0FCFE044904481CF02F
:1051000033FA08BDF0190020F01E00206CAF020039
:1051100080AF02002DE9F04182B000AF0446D0F824
:1051200000E0D0F804C086686D468AB06B4613F183
:10513000100200F001811820BAB10146042803DDF5
:10514000DFF82482C3F81480082903DDDFF81C820D
:10515000C3F818800C2901DDC3F81CE0102901DD1B
:10516000C3F820C0142900DD5E62172840F3E780F1
:105170004FF0180C3AB10621397100217971B971DB
:10518000F9717868186100216FF300016FF3410134
:105190006FF382016FF3C501012363F38811CCF330
:1051A0000A0C6CF353216FF31F5100237048FFF773
:1051B00031F8AD46D4F80CE0D4F810C066696D46FD
:1051C0008AB06B4613F1100200F0BC801820BAB10F
:1051D0000146042803DDDFF89C81C3F81480082908
:1051E00003DDDFF88881C3F818800C2901DDC3F8DE
:1051F0001CE0102901DDC3F820C0142900DD5E6227
:10520000172840F3A2804FF0180C3AB106213971EB
:1052100000217971B971F9717868186100216FF313
:1052200000016FF341016FF382016FF3C5010123A8
:1052300063F38811CCF30A0C6CF353216FF31F5105
:1052400000234B48FEF7E6FFAD46E6696D4688B0A1
:105250006B4613F110027BD010217AB10846042965
:1052600003DDDFF814C1C3F814C0082803DDDFF83C
:10527000FCC0C3F818C00C2800DDDE610F296ADD10
:105280004FF0100C3AB10421397100217971B971D4
:10529000F9717868186100216FF300016FF3410123
:1052A0006FF382016FF3C501012363F38811CCF31F
:1052B0000A0C6CF353216FF31F5100232C48FEF7A7
:1052C000A9FFAD46A46988B06B4613F1100245D022
:1052D00010215AB10846042901DD284D5D610828D6
:1052E00001DD224D9D610C2800DDDC610F2938DDD8
:1052F00010243AB10421397100217971B971F97121
:105300007868186100216FF300016FF341016FF3BA
:1053100082016FF3C501012363F38811C4F30A040A
:1053200064F353216FF31F5100231148FEF772FFFE
:105330000837BD46BDE8F0816FF00040FCE66FF035
:105340001B0C17E76FF0004041E76FF01B0C5CE7A8
:105350006FF0004181E76FF01B0C93E76FF00041A5
:10536000B7E76FF01B04C4E790AF020040B0020043
:10537000249C0200C4AF0200F8AF02000CB002008F
:1053800030BFFFF7FDBF00BF38B50446084D2A46C1
:10539000084924F0C9F90848431E2B44B3FBF0F335
:1053A000064A002100FB034024F0CBF938BD00BFC2
:1053B000000000004C9C02000100000004000000FE
:1053C00070B505460C480D4A0244013AB2FBF0F2B2
:1053D0000B4B0C4C1C44013CB4FBF3F404FB03F3F7
:1053E00000FB02340E1B3046FFF7CEFF083E6E670F
:1053F00004F1080070BD00BF0100000000000000C3
:105400000400000004000000044B996858698842B9
:1054100003D003494FF080520A60704714290020DE
:1054200004ED00E081690D4B5A6942F480725A61C3
:10543000BFF34F8FBFF36F8F31F8021C5A6922F40C
:1054400080725A61BFF34F8FBFF36F8F4DF60273B7
:10545000994201D0002070470120704700ED00E024
:105460004FF0000C83F800C002F07F4CBCF17F4F7E
:105470004ED102F00C0CBCF1080F04D012F0080F52
:1054800043D008467047B0B582B000AF6C4688B0D4
:105490006B4613F1100232D00C2142B108460429A8
:1054A00001DD1C4D5D61082801DD1B4898610B2959
:1054B00028DD4FF00C0C3AB10321397100217971CC
:1054C000B971F9717868186100216FF300016FF309
:1054D00041016FF382016FF3C501012363F388116A
:1054E000CCF30A0363F353216FF31F5100230B48DE
:1054F000FEF790FEA54600200837BD46B0BD6FF010
:105500000041CAE76FF01B0CD5E701221A70704703
:10551000002070474CB0020048B60200249C0200F4
:105520002DE9F04182B000AF05460E461446E8462C
:1055300088B06B4613F1100200F041810C2152B18A
:105540000846042903DDDFF8B8C2C3F814C00828F0
:1055500001DDAC4898610B2940F334814FF00C0C0D
:105560003AB10321397100217971B971F971786803
:10557000186100216FF300016FF341016FF38201A5
:105580006FF3C501012363F38811CCF30A0C6CF3AC
:1055900053216FF31F5100239B48FEF73BFEC54686
:1055A0009A4B9B6A13F0100F00F01581E84688B003
:1055B0006B4613F1100200F008810C2152B108462D
:1055C000042903DDDFF848C2C3F814C0082801DD50
:1055D0008C4898610B2940F3FB804FF00C0C3AB1DA
:1055E0000321397100217971B971F97178681861F5
:1055F00000216FF300016FF341016FF382016FF33C
:10560000C501012363F38811CCF30A0C6CF3532119
:105610006FF31F5100237C48FEF7FCFDC5464FF099
:1056200011087A4B9B6A13F0080F3AD0E84688B00D
:105630006B4613F1100200F0D1800C2152B10846E4
:10564000042903DDDFF8CCC1C3F814C0082801DD4C
:105650006C4898610B2940F3C4804FF00C0C3AB1B0
:105660000321397100217971B971F9717868186174
:1056700000216FF300016FF341016FF382016FF3BB
:10568000C501012363F38811CCF30A0C6CF3532199
:105690006FF31F5100235C48FEF7BCFDC5464FF079
:1056A00012085A4B9B6A13F0020F00F0BB80E846C9
:1056B00088B06B4613F1100200F096800C2152B1B5
:1056C0000846042903DDDFF850C1C3F814C00828D8
:1056D00001DD4C4898610B2940F389804FF00C0C98
:1056E0003AB10321397100217971B971F971786882
:1056F000186100216FF300016FF341016FF3820124
:105700006FF3C501012363F38811CCF30A0C6CF32A
:1057100053216FF31F5100233B48FEF77BFDC54625
:105720003A4B586B9B6A13F0800F79D0E84688B0EB
:105730006B4613F110025DD010218AB18C4604290A
:1057400003DDDFF8D8E0C3F814E0BCF1080F03DD97
:10575000DFF8B0E0C3F818E0BCF10C0F00DDD86151
:105760000F294ADD4FF0100C3AB1042139710021A4
:105770007971B971F9717868186100216FF30001CE
:105780006FF341016FF382016FF3C501012363F3EE
:105790008811CCF30A0C6CF353216FF31F510023D3
:1057A0001948FEF737FDC546002E00F0A380174AC2
:1057B000936A23F0800393624FF0130832E06FF096
:1057C0000041BCE66FF01B0CCAE66FF00041F5E645
:1057D0006FF01B0C03E74FF0100822E76FF0004159
:1057E0002CE76FF01B0C3AE76FF0004167E76FF0B2
:1057F0001B0C75E76FF000419FE76FF01B0CB3E7E0
:105800007CB0020028B60200249C020000ED00E0FB
:1058100098B00200D0B00200E8B0020004B102006B
:105820004FF013085E4B9B6A13F0010F35D0E8462A
:1058300088B06B4613F110025FD00C2142B10846CC
:10584000042901DD574E5E61082801DD5648986144
:105850000B2955DD0C263AB10321397100217971EC
:10586000B971F9717868186100216FF300016FF365
:1058700041016FF382016FF3C501012363F38811C6
:10588000C6F30A0666F353216FF31F5100234748FE
:10589000FEF7C0FCC5464FF01408414B9B6A13F05D
:1058A000200F30D13E4B9B6A13F0100F04D13C4BBC
:1058B0009B6A13F0020F04D0394B9B6A13F0100F50
:1058C0005ED1374B9B6A13F0200F04D0344A536AE1
:1058D00023F400535362324A936A43F0FF03936206
:1058E000012128461DF0F1FF207040460837BD46D3
:1058F000BDE8F0814FF0130894E76FF000419DE799
:105900006FF01B06A7E7E84688B06B4613F110025C
:1059100030D00C2142B10846042901DD244E5E61DD
:10592000082801DD204898610B2926DD0C263AB1B4
:105930000321397100217971B971F97178681861A1
:1059400000216FF300016FF341016FF382016FF3E8
:10595000C501012363F38811C6F30A0666F35321D8
:105960006FF31F5100231148FEF754FCC5464FF05A
:10597000150897E76FF00041CCE76FF01B06D6E7FC
:105980000C4C40F2631322460B490C481CF05CFDA2
:105990000B481CF059FD40F2631120461CF04DFDF0
:1059A00000ED00E020B1020028B60200249C0200B5
:1059B00044B1020078B10200B4B102005CA102005F
:1059C00000B202002DE9F04182B000AF05460E465C
:1059D0001446E84688B06B4613F1100200F041818E
:1059E0000C2152B10846042903DDDFF8B8C2C3F820
:1059F00014C0082801DDAC4898610B2940F33481BC
:105A00004FF00C0C3AB10321397100217971B97151
:105A1000F9717868186100216FF300016FF341019B
:105A20006FF382016FF3C501012363F38811CCF397
:105A30000A0C6CF353216FF31F5100239B48FEF7B0
:105A4000E9FBC5469A4B9B6A13F4805F00F0158111
:105A5000E84688B06B4613F1100200F008810C2173
:105A600052B10846042903DDDFF848C2C3F814C068
:105A7000082801DD8C4898610B2940F3FB804FF02A
:105A80000C0C3AB10321397100217971B971F971A6
:105A90007868186100216FF300016FF341016FF323
:105AA00082016FF3C501012363F38811CCF30A0C63
:105AB0006CF353216FF31F5100237C48FEF7AAFBC0
:105AC000C5464FF017087A4B9B6A13F4006F3AD023
:105AD000E84688B06B4613F1100200F0D1800C212B
