:10000000204A0020253E0000CFA90000113E00003C
:10001000113E0000113E0000113E0000113E0000A4
:10002000000000000000000000000000DD3F0000B4
:10003000113E000000000000753F0000113E00006E
:10004000BD410000BD410000BD410000BD410000B8
:10005000BD410000BD410000BD410000BD410000A8
:10006000BD410000BD410000BD410000BD41000098
:10007000BD410000BD410000BD410000BD41000088
:10008000BD410000BD410000BD410000BD41000078
:10009000BD410000BD410000BD410000BD41000068
:1000A000BD410000BD410000BD410000BD41000058
:1000B000BD410000BD410000BD410000BD41000048
:1000C000BD410000BD410000BD410000BD41000038
:1000D000BD410000BD410000BD410000BD41000028
:1000E000BD410000BD410000BD410000BD41000018
:1000F000BD410000BD410000BD410000BD41000008
:10010000BD410000BD410000BD410000BD410000F7
:10011000BD410000BD410000BD410000BD410000E7
:10012000BD410000BD410000BD410000BD410000D7
:10013000BD410000BD410000BD410000BD410000C7
:10014000BD410000BD410000BD410000BD410000B7
:04015000BD410000AD
:04015400FFFFFFFFAB
:1001580081F0004102E000BF83F0004330B54FEA70
:1001680041044FEA430594EA050F08BF90EA020FDD
:100178001FBF54EA000C55EA020C7FEA645C7FEA70
:10018800655C00F0E2804FEA5454D4EB5555B8BF93
:100198006D420CDD2C4480EA020281EA030382EA04
:1001A800000083EA010180EA020281EA0303362D96
:1001B80088BF30BD11F0004F4FEA01314FF4801C69
:1001C8004CEA113102D0404261EB410113F0004F7B
:1001D8004FEA03334CEA133302D0524263EB430332
:1001E80094EA050F00F0A780A4F10104D5F1200ED0
:1001F8000DDB02FA0EFC22FA05F2801841F100012B
:1002080003FA0EF2801843FA05F359410EE0A5F1FE
:1002180020050EF1200E012A03FA0EFC28BF4CF02F
:10022800020C43FA05F3C01851EBE37101F00045E5
:1002380007D54FF0000EDCF1000C7EEB00006EEBF2
:100248000101B1F5801F1BD3B1F5001F0CD349087C
:100258005FEA30004FEA3C0C04F101044FEA4452D3
:1002680012F5800F80F09A80BCF1004F08BF5FEA5A
:10027800500C50F1000041EB045141EA050130BD3A
:100288005FEA4C0C404141EB0101013C28BFB1F54C
:10029800801FE9D291F0000F04BF01460020B1FA97
:1002A80081F308BF2033A3F10B03B3F120020CDA6A
:1002B8000C3208DD02F1140CC2F10C0201FA0CF048
:1002C80021FA02F10CE002F11402D8BFC2F1200CAD
:1002D80001FA02F120FA0CFCDCBF41EA0C01904063
:1002E800E41AA2BF01EB0451294330BD6FEA0404AC
:1002F8001F3C1CDA0C340EDC04F11404C4F1200297
:1003080020FA04F001FA02F340EA030021FA04F3A8
:1003180045EA030130BDC4F10C04C4F1200220FAFF
:1003280002F001FA04F340EA0300294630BD21FA3D
:1003380004F0294630BD94F0000F83F4801306BF03
:1003480081F480110134013D4EE77FEA645C18BFF7
:100358007FEA655C29D094EA050F08BF90EA020F8E
:1003680005D054EA000C04BF1946104630BD91EA86
:10037800030F1EBF0021002030BD5FEA545C05D189
:100388004000494128BF41F0004130BD14F58004C8
:100398003CBF01F5801130BD01F0004545F0FE413C
:1003A80041F470014FF0000030BD7FEA645C1ABF71
:1003B800194610467FEA655C1CBF0B46024650EAA8
:1003C800013406BF52EA033591EA030F41F40021D4
:1003D80030BD00BF90F0000F04BF0021704730B55A
:1003E8004FF4806404F132044FF000054FF000012F
:1003F80050E700BF90F0000F04BF0021704730B5F0
:100408004FF4806404F1320410F0004548BF4042C4
:100418004FF000013EE700BF42004FEAE2014FEA19
:1004280031014FEA02701FBF12F07F4393F07F4FF4
:1004380081F06051704732F07F4208BF704793F0F7
:100448007F4F04BF41F40021704730B54FF460740A
:1004580001F0004521F000411CE700BF50EA01020D
:1004680008BF704730B54FF000050AE050EA0102B6
:1004780008BF704730B511F0004502D5404261EB26
:1004880041014FF4806404F132045FEA915C3FF467
:10049800D8AE4FF003025FEADC0C18BF03325FEA04
:1004A800DC0C18BF033202EBDC02C2F1200300FAB5
:1004B80003FC20FA02F001FA03FE40EA0E0021FADA
:1004C80002F11444BDE600BF70B54FF0FF0C4CF4C8
:1004D800E06C1CEA11541DBF1CEA135594EA0C0F7A
:1004E80095EA0C0F00F0DEF82C4481EA030621EAB5
:1004F8004C5123EA4C5350EA013518BF52EA0335F0
:1005080041F4801143F4801338D0A0FB02CE4FF0A1
:100518000005E1FB02E506F00042E0FB03E54FF0D1
:100528000006E1FB03569CF0000F18BF4EF0010EC9
:10053800A4F1FF04B6F5007F64F5407404D25FEAC5
:100548004E0E6D4146EB060642EAC62141EA555178
:100558004FEAC52040EA5E504FEACE2EB4F1FD0CBA
:1005680088BFBCF5E06F1ED8BEF1004F08BF5FEA38
:10057800500E50F1000041EB045170BD06F00046EA
:1005880046EA010140EA020081EA0301B4EB5C0497
:10059800C2BFD4EB0C0541EA045170BD41F480118F
:1005A8004FF0000E013C00F3AB8014F1360FDEBFB4
:1005B800002001F0004170BDC4F10004203C35DA90
:1005C8000C341BDC04F11404C4F1200500FA05F313
:1005D80020FA04F001FA05F240EA020001F00042B4
:1005E80021F0004110EBD37021FA04F642EB06012A
:1005F8005EEA430E08BF20EAD37070BDC4F10C0454
:10060800C4F1200500FA04F320FA05F001FA04F217
:1006180040EA020001F0004110EBD37041F1000103
:100628005EEA430E08BF20EAD37070BDC4F120050E
:1006380000FA05F24EEA020E20FA04F301FA05F276
:1006480043EA020321FA04F001F0004121FA04F21E
:1006580020EA020000EBD3705EEA430E08BF20EAEE
:10066800D37070BD94F0000F0FD101F00046400028
:1006780041EB010111F4801F08BF013CF7D041EAAA
:10068800060195F0000F18BF704703F000465200AE
:1006980043EB030313F4801F08BF013DF7D043EA7F
:1006A8000603704794EA0C0F0CEA135518BF95EA35
:1006B8000C0F0CD050EA410618BF52EA4306D1D1BC
:1006C80081EA030101F000414FF0000070BD50EADB
:1006D800410606BF1046194652EA430619D094EA65
:1006E8000C0F02D150EA013613D195EA0C0F05D14F
:1006F80052EA03361CBF104619460AD181EA0301A3
:1007080001F0004141F0FE4141F470014FF000005A
:1007180070BD41F0FE4141F4780170BD70B54FF0F5
:10072800FF0C4CF4E06C1CEA11541DBF1CEA135575
:1007380094EA0C0F95EA0C0F00F0A7F8A4EB050457
:1007480081EA030E52EA03354FEA013100F088804E
:100758004FEA03334FF0805545EA131343EA126317
:100768004FEA022245EA111545EA10654FEA0026CC
:100778000EF000419D4208BF964244F1FD0404F585
:10078800407402D25B084FEA3202B61A65EB0305E1
:100798005B084FEA32024FF480104FF4002CB6EB9E
:1007A800020E75EB030E22BFB61A754640EA0C001E
:1007B8005B084FEA3202B6EB020E75EB030E22BF5E
:1007C800B61A754640EA5C005B084FEA3202B6EB9F
:1007D800020E75EB030E22BFB61A754640EA9C005E
:1007E8005B084FEA3202B6EB020E75EB030E22BF2E
:1007F800B61A754640EADC0055EA060E18D04FEAEC
:10080800051545EA16754FEA06164FEAC30343EA8B
:1008180052734FEAC2025FEA1C1CC0D111F4801F58
:100828000BD141EA00014FF000004FF0004CB6E751
:1008380011F4801F04BF01430020B4F1FD0C88BFF0
:10084800BCF5E06F3FF6AFAEB5EB030C04BFB6EBFB
:10085800020C5FEA500C50F1000041EB045170BDEE
:100868000EF0004E4EEA113114EB5C04C2BFD4EB1B
:100878000C0541EA045170BD41F480114FF0000E9F
:10088800013C90E645EA060E8DE60CEA135594EA1B
:100898000C0F08BF95EA0C0F3FF43BAF94EA0C0F1E
:1008A8000AD150EA01347FF434AF95EA0C0F7FF493
:1008B80025AF104619462CE795EA0C0F06D152EAE7
:1008C80003353FF4FDAE1046194622E750EA4106CB
:1008D80018BF52EA43067FF4C5AE50EA41047FF4DC
:1008E8000DAF52EA43057FF4EBAE12E74FF0FF3C41
:1008F80006E000BF4FF0010C02E000BF4FF0010C12
:100908004DF804CD4FEA410C7FEA6C5C4FEA430C8A
:1009180018BF7FEA6C5C1BD001B050EA410C0CBFD9
:1009280052EA430C91EA030F02BF90EA020F00203B
:10093800704710F1000F91EA030F58BF994208BFA2
:1009480090422CBFD8176FEAE37040F0010070475F
:100958004FEA410C7FEA6C5C02D150EA013C07D1B6
:100968004FEA430C7FEA6C5CD6D152EA033CD3D001
:100978005DF8040B704700BF8446104662468C46FB
:100988001946634600E000BF01B5FFF7B7FF00282E
:1009980048BF10F1000F01BD4DF808EDFFF7F4FF57
:1009A8000CBF012000205DF808FB00BF4DF808EDE2
:1009B800FFF7EAFF34BF012000205DF808FB00BF05
:1009C8004DF808EDFFF7E0FF94BF012000205DF827
:1009D80008FB00BF4DF808EDFFF7CEFF94BF0120DC
:1009E80000205DF808FB00BF4DF808EDFFF7C4FFD5
:1009F80034BF012000205DF808FB00BF4FEA410228
:100A080012F5001215D211D56FF47873B3EB625258
:100A180012D94FEAC12343F0004343EA505311F07F
:100A2800004F23FA02F018BF404270474FF0000011
:100A3800704750EA013005D111F0004008BF6FF04F
:100A4800004070474FF00000704700BF4FEA410276
:100A5800B2F1E04324BFB3F5001CDCF1FE5C0DD914
:100A680001F0004C4FEAC0024CEA5070B2F1004F5E
:100A780040EB830008BF20F00100704711F0804F61
:100A880021D113F13872BCBF01F00040704741F426
:100A980080114FEA5252C2F11802C2F1200C10FA2A
:100AA8000CF320FA02F018BF40F001004FEAC1230E
:100AB8004FEAD32303FA0CFC40EA0C0023FA02F3B2
:100AC8004FEA4303CCE77FEA625307D150EA013388
:100AD8001EBF4FF0FE4040F44000704701F0004058
:100AE80040F0FE4040F40000704700BF80F0004036
:100AF80002E000BF81F0004142001FBF5FEA4103EE
:100B080092EA030F7FEA226C7FEA236C6AD04FEAED
:100B18001262D2EB1363C1BFD21841404840414032
:100B2800B8BF5B42192B88BF704710F0004F40F4E4
:100B3800000020F07F4018BF404211F0004F41F400
:100B4800000121F07F4118BF494292EA030F3FD0CC
:100B5800A2F1010241FA03FC10EB0C00C3F12003DF
:100B680001FA03F100F0004302D5494260EB40006E
:100B7800B0F5000F13D3B0F1807F06D340084FEAD9
:100B8800310102F10102FE2A51D2B1F1004F40EBCE
:100B9800C25008BF20F0010040EA03007047490036
:100BA80040EB0000013A28BFB0F5000FEDD2B0FAD3
:100BB80080FCACF1080CB2EB0C0200FA0CF0AABFF6
:100BC80000EBC25052421843BCBFD0401843704794
:100BD80092F0000F81F4000106BF80F4000001329A
:100BE800013BB5E74FEA41037FEA226C18BF7FEA71
:100BF800236C21D092EA030F04D092F0000F08BFB3
:100C08000846704790EA010F1CBF0020704712F099
:100C18007F4F04D1400028BF40F00040704712F1D8
:100C280000723CBF00F50000704700F0004343F03D
:100C3800FE4040F4000070477FEA226216BF084673
:100C48007FEA23630146420206BF5FEA412390EA36
:100C5800010F40F4800070474FF0000304E000BF2C
:100C680010F0004348BF40425FEA000C08BF7047DD
:100C780043F0964301464FF000001CE050EA0102A1
:100C880008BF70474FF000030AE000BF50EA0102B6
:100C980008BF704711F0004302D5404261EB4101A3
:100CA8005FEA010C02BF84460146002043F0B643C8
:100CB80008BFA3F18053A3F50003BCFA8CF2083AED
:100CC800A3EBC25310DB01FA02FC634400FA02FCF6
:100CD800C2F12002BCF1004F20FA02F243EB0200FD
:100CE80008BF20F00100704702F1200201FA02FC5F
:100CF800C2F1200250EA4C0021FA02F243EB020052
:100D080008BF20EADC7070474FF0FF0C1CEAD05295
:100D18001EBF1CEAD15392EA0C0F93EA0C0F6FD056
:100D28001A4480EA010C400218BF5FEA41211ED034
:100D38004FF0006343EA501043EA5111A0FB013120
:100D48000CF00040B1F5000F3EBF490041EAD371F5
:100D58005B0040EA010062F17F02FD2A1DD8B3F171
:100D6800004F40EBC25008BF20F00100704790F0E0
:100D7800000F0CF0004C08BF49024CEA502040EA32
:100D880051207F3AC2BFD2F1FF0340EAC2507047F8
:100D980040F400004FF00003013A5DDC12F1190F36
:100DA800DCBF00F000407047C2F10002410021FAA8
:100DB80002F1C2F1200200FA02FC5FEA310040F1C0
:100DC800000053EA4C0308BF20EADC70704792F039
:100DD800000F00F0004C02BF400010F4000F013A71
:100DE800F9D040EA0C0093F0000F01F0004C02BF6C
:100DF800490011F4000F013BF9D041EA0C018FE7DB
:100E08000CEAD15392EA0C0F18BF93EA0C0F0AD0E0
:100E180030F0004C18BF31F0004CD8D180EA010006
:100E280000F00040704790F0000F17BF90F0004F9F
:100E3800084691F0000F91F0004F14D092EA0C0F81
:100E480001D142020FD193EA0C0F03D14B0218BF14
:100E5800084608D180EA010000F0004040F0FE405A
:100E680040F40000704740F0FE4040F440007047F6
:100E78004FF0FF0C1CEAD0521EBF1CEAD15392EA75
:100E88000C0F93EA0C0F69D0A2EB030280EA010C65
:100E980049024FEA402037D04FF0805343EA1111FE
:100EA80043EA10130CF000408B4238BF5B0042F15C
:100EB8007D024FF4000C8B4224BF5B1A40EA0C0001
:100EC800B3EB510F24BFA3EB510340EA5C00B3EB33
:100ED800910F24BFA3EB910340EA9C00B3EBD10F21
:100EE80024BFA3EBD10340EADC001B0118BF5FEA73
:100EF8001C1CE0D1FD2A3FF650AF8B4240EBC2509C
:100F080008BF20F0010070470CF0004C4CEA50205C
:100F18007F32C2BFD2F1FF0340EAC250704740F4AB
:100F280000004FF00003013A37E792F0000F00F09D
:100F3800004C02BF400010F4000F013AF9D040EA1B
:100F48000C0093F0000F01F0004C02BF490011F4AF
:100F5800000F013BF9D041EA0C0195E70CEAD153A7
:100F680092EA0C0F08D142027FF47DAF93EA0C0F8E
:100F78007FF470AF084676E793EA0C0F04D14B0272
:100F88003FF44CAF08466EE730F0004C18BF31F024
:100F9800004CCAD130F000427FF45CAF31F000431E
:100FA8007FF43CAF5FE700BF4FF0FF3C06E000BFB7
:100FB8004FF0010C02E000BF4FF0010C4DF804CDDA
:100FC8004FEA40024FEA41037FEA226C18BF7FEAEA
:100FD800236C11D001B052EA530C18BF90EA010FEC
:100FE80058BFB2EB030088BFC81738BF6FEAE1707B
:100FF80018BF40F0010070477FEA226C02D15FEA17
:10100800402C05D17FEA236CE4D15FEA412CE1D082
:101018005DF8040B704700BF844608466146FFE749
:101028000FB5FFF7C9FF002848BF10F1000F0FBD2B
:101038004DF808EDFFF7F4FF0CBF012000205DF824
:1010480008FB00BF4DF808EDFFF7EAFF34BF0120A9
:1010580000205DF808FB00BF4DF808EDFFF7E0FF42
:1010680094BF012000205DF808FB00BF4DF808ED93
:10107800FFF7D2FF94BF012000205DF808FB00BFF6
:101088004DF808EDFFF7C8FF34BF012000205DF8D8
:1010980008FB00BF4FEA4002B2F1FE4F0FD34FF0FA
:1010A8009E03B3EB12620DD94FEA002343F00043CD
:1010B80010F0004F23FA02F018BF404270474FF07B
:1010C8000000704712F1610F01D1420205D110F002
:1010D800004008BF6FF0004070474FF000007047B5
:1010E80042000ED2B2F1FE4F0BD34FF09E03B3EB8A
:1010F800126209D44FEA002343F0004323FA02F0B6
:1011080070474FF00000704712F1610F01D14202A1
:1011180002D14FF0FF3070474FF00000704700BF1A
:101128007BB972B90029BEBF00204FF0004106E02C
:1011380008BF00281CBF6FF000414FF0FF3000F0DF
:1011480057B8ADF1080C6DE904CE002909DB002B76
:101158001ADB00F04FF8DDF804E0DDE9022304B003
:101168007047404261EB4101002B1BDB00F042F865
:10117800DDF804E0DDE9022304B0404261EB4101FF
:10118800524263EB43037047524263EB430300F060
:1011980031F8DDF804E0DDE9022304B0404261EBF8
:1011A80041017047524263EB430300F023F8DDF836
:1011B80004E0DDE9022304B0524263EB43037047C5
:1011C80053B94AB9002908BF00281CBF4FF0FF31A6
:1011D8004FF0FF3000F00CB8ADF1080C6DE904CE0B
:1011E80000F008F8DDF804E0DDE9022304B07047F8
:1011F800704700BF2DE9F04786468C460846089E92
:10120800154674461946002B40F0C1808542B2FA53
:1012180082F245D94AB1C2F1200300FA02FC954096
:1012280094402EFA03F343EA0C0C4FEA154EA8B289
:10123800230CBCFBFEF80EFB18CC08FB00F943EAB4
:101248000C43994528D9EB1808F1FF3704D2994582
:1012580002D9A8F102072B44A3EB0903A4B2B3FBFC
:10126800FEFC0EFB1C330CFB00F044EA0344A042D6
:1012780014D92C190CF1FF3304D2A04202D9ACF1D5
:1012880002032C44241A43EA07401EB1D440002329
:1012980034607360BDE8F0874746DDE76346F1E7F1
:1012A80092BB431B01214FEA154EAFB2200CB3FB92
:1012B800FEFC0EFB1C330CFB07F840EA0343984581
:1012C80061D9EB180CF1FF3004D2984502D9ACF182
:1012D80002002B44A3EB0803A4B2B3FBFEFC0EFBF5
:1012E8001C330CFB07F744EA0344A7424DD92C19D9
:1012F8000CF1FF3304D2A74202D9ACF102032C440B
:10130800E41B43EA0040C0E7C2F120039540944043
:1013180020FA03F12EFA03F34FEA154E9040AFB2CC
:101328000343B1FBFEFC0EFB1C10190C0CFB07F869
:1013380041EA0041884522D969180CF1FF3004D2EE
:10134800884502D9ACF102002944A1EB08019BB2FF
:10135800B1FBFEFC0EFB1C110CFB07F743EA014333
:101368009F420ED9EB180CF1FF3104D29F4202D9EB
:10137800ACF102012B44DB1B41EA004193E76046D4
:10138800E3E76146F7E76046A4E76346B8E78342C8
:1013980006D916B9002108467CE7C6E900E0F9E756
:1013A800B3FA83F78FB9834201D3724508D8BEEBED
:1013B800020460EB030301209C461EB9002169E783
:1013C8003846FAE7C6E9004CF8E7C7F1200CBB40FD
:1013D8000EFA07F522FA0CF42EFA0CF1BA401C4367
:1013E80020FA0CF3B8404FEA144901431FFA84FE6F
:1013F800B3FBF9F809FB18300B0C08FB0EFA43EAAB
:1014080000439A4540D9E31808F1FF3004D29A45C1
:1014180002D9A8F102002344A3EB0A0389B2B3FB63
:10142800F9F809FB183308FB0EFE41EA03418E4523
:101438002CD9611808F1FF3304D28E4502D9A8F1DE
:101448000203214443EA0040A1EB0E01A0FB0298ED
:101458004145CE46434602D306D14D4504D2013814
:10146800B9EB020E68EB0403002EA7D0B5EB0E0211
:1014780061EB030101FA0CFC22FA07F3F9404CEA8C
:101488000303C6E9003199E74046C5E74346D9E773
:1014980010F8012B11F8013B012A28BF9A42F7D016
:1014A800D01A7047000000002DE9F74F4FF47A7505
:1014B8000024314E4FF40047338940F2E730B5FB42
:1014C800F3F521464FF47A720023C5FB0701FFF7B5
:1014D80077FE4FF07C5ACDE90001DFF8A0B0204636
:1014E800FFF7BAFB5946FFF7C3FC07463068FEF71B
:1014F80093FF1FA3D3E90023FEF7E6FFFFF7A6FA41
:1015080001463846FFF700FC07F08EFFB6F8069054
:101518008046B088A0EB0900FFF7A2FB5146FFF711
:10152800F3FB4FF07E5107464046FFF7E5FA0146C8
:101538003846FFF7E9FB07464846FFF791FB0146A7
:101548003846FFF7D9FA0746FEF766FF02460B460C
:101558000B48214607F0C6F83846FFF7C1FD80B2B0
:1015680001F034FBDDE9000106F0A0FC2C44B6E7ED
:101578004AD8124DFB2119400800002000007A4487
:101588009DC90000000000002DE9F04F91B00D4604
:101598000446CDE90023DDE9007B2BF0004252EA46
:1015A800070111D1031885F4002252419942864B54
:1015B800934180F0D18020462946DDE90023FEF7DB
:1015C800CDFD04460D4618E025F000487F4BA9469E
:1015D800844698451DD815D10028ECD14245EAD853
:1015E80026D1002FE7D17A4B984540F2B880BBF15D
:1015F800000FC0F21E85DDE900452046294611B0DE
:10160800BDE8F08F9A4204D8C64612D1002F00F0E8
:101618009C8009F1404909F5801959EA0C09CAD199
:10162800FA198BF400235B419145674A9A41C0E758
:10163800C646B9F1000F2BDA664B9A422DD9002F16
:1016480000F0BA800226204625F00041BCF1000FC8
:1016580000F0A9824FEAD97303F1FF3A5AEA060C5F
:1016680000F0BB82B2F1844F40F2CF805A4CA242C4
:10167800574A40F2D682904500F2C982BBF1000F6A
:1016880080F2C982002011B0BDE8F04F07F086BF94
:10169800002F00F081800026D5E74D4B9A421AD8DA
:1016A800002FF8D1BBF1804F7DD04C4B3E469B4577
:1016B800C9D1204625F00041BCF1000F40F09D80C3
:1016C800424B984540F0B984012E04460D4694D10A
:1016D80001F1004591E71315A3F2FF33142B1DDD2B
:1016E800C3F1340327FA03F606FA03F3BB4228D101
:1016F80006F00106C6F10206002FA4D1BBF1804F07
:10170800A1D1374B98459ED8364B98456ED922467D
:101718002B4620462946FEF7D7FE52E7002F40F019
:101728003B82C3F1140342FA03F606FA03F3934229
:101738002D4B1DD19A421DD006F00106C6F10206B6
:10174800DCE7002FA7D13E46D8E708F1404303F570
:10175800801303437FF447AF0024234D4DE7BBF1CB
:10176800000F80F26684DDE9004303F1004544E799
:101778009A42E8D1BBF1000FBFF63FAF0022002329
:1017880020462946FFF708F978B14FEAD97011B019
:10179800BDE8F04F07F00EBF134B9A42EAD0BBF1F9
:1017A800804F40F0EF813E46ABE722462B460020B3
:1017B8000D49FEF7B3FF04E7BBF1804F02D0074B9A
:1017C800022674E702269CE70000F0FF0000F07F85
:1017D800FFFFEF3FFFFF3F430000F0430000E03F03
:1017E800FFFFEF5F0000501E0000F03F5CEA080CAE
:1017F800204625F0004100F028844FEAD97303F110
:10180800FF3A56EA0A0300F0E881C74B002209EACA
:1018180003032BB9C54BFEF757FE6FF034028E4613
:101828004FEA2E53CEF3130EA3F2FF334EF07F553B
:10183800134445F440150C93BD4B9E4508DDBD4B44
:101848009E4540F3A8820C9BA5F5801501330C93A7
:101858000024E30029466D100D93B74B45F0005561
:1018680003EBC40305F50025D3E90023CDE90A01FC
:10187800CDE90823FEF770FC80468946DDE90A2396
:10188800DDE90801FEF76AFC02460B460020AB4979
:10189800FEF744FF02460B46CDE90E014046494695
:1018A800FEF712FECDE90601DDE90623CDE90423A2
:1018B80000230493DDE90423CDE9022305EB8443E7
:1018C80000221D46144629462046DDE90223FEF77C
:1018D800FBFD02460B4640464946FEF73DFC804666
:1018E800894620462946DDE90823FEF735FC0246ED
:1018F8000B46DDE90A01FEF72FFCDDE90223FEF7BE
:10190800E3FD02460B4640464946FEF725FCDDE965
:101918000E23FEF7D9FDDDE90623CDE908011046BF
:101928001946FEF7D1FD804689466DA3D3E9002309
:10193800FEF7CAFD6CA3D3E90023FEF70FFC42466D
:101948004B46FEF7C1FD6AA3D3E90023FEF706FC68
:1019580042464B46FEF7B8FD67A3D3E90023FEF7DE
:10196800FDFB42464B46FEF7AFFD65A3D3E90023D6
:10197800FEF7F4FB42464B46FEF7A6FD62A3D3E909
:101988000023FEF7EBFB04460D4642464B46404615
:101998004946FEF799FD02460B4620462946FEF7C2
:1019A80093FD04460D46DDE90223DDE90601FEF755
:1019B800D5FBDDE90823FEF787FD22462B46FEF717
:1019C800CDFB04460D46DDE9022310461946FEF715
:1019D8007BFD02460B46CDE90A230022584BFEF751
:1019E800BDFB22462B46FEF7B9FB00208946804600
:1019F800DDE90223FEF768FD0022514BCDE9020123
:101A080040464946FEF7A8FBDDE90A23FEF7A4FB9A
:101A180002460B4620462946FEF79EFBDDE90623D3
:101A2800FEF752FD04460D4640464946DDE90823C7
:101A3800FEF74AFD02460B4620462946FEF78EFB76
:101A480004460D4602460B46DDE90201FEF786FB19
:101A58000020894680462EA3D3E90023FEF734FDF3
:101A6800DDE90223CDE9060140464946FEF774FB4D
:101A780002460B4620462946FEF76EFB26A3D3E90D
:101A88000023FEF721FD04460D464046494624A39F
:101A9800D3E90023FEF718FD02460B4620462946E7
:101AA800FEF75CFB0D9A274B1344D3E90023FEF79E
:101AB80055FBCDE908010C98FEF79CFC0D9A224BCA
:101AC80004460D461344D3E90023DDE90601CDE9B8
:101AD8000223DDE90823FEF741FB37E0AFF300807E
:101AE800EF4E454A287ECA3F65DBC9934A86CD3FFB
:101AF80001411DA96074D13F4D268F515555D53FE1
:101B0800FFAB6FDBB66DDB3F033333333333E33F78
:101B1800000000E009C7EE3FFD033ADC09C7EE3FCD
:101B2800F5015B14E02F3EBE0000F07F000040434B
:101B38008E98030079B60B0008BE00000000F03F45
:101B480000000840E8BD0000F8BD0000DDE9022300
:101B5800FEF704FB22462B46FEF700FB0020224638
:101B68002B4680468946FEF7F7FADDE90223FEF7A1
:101B7800F3FADDE90623FEF7EFFA02460B46DDE944
:101B88000801B9E0B04B9B452ED12046294611B03B
:101B9800BDE8F04F07F032BDBCF1000F1DD1204663
:101BA80025F00041664629F0404CA84B9C451DD1C4
:101BB800BBF1000F05DA02460B460020A349FEF7E9
:101BC800ADFDB9F1000FBFF6FCAC08F1404808F5CF
:101BD800801858EA06087FF477AD2046294611B0E8
:101BE800BDE8F04F07F0F2BC3E462CE5B8F1000F17
:101BF8007FF430ADBBF1000F80F22782B9F1000FFE
:101C080003DA731E58425841C1E54046BFE5BBF1AF
:101C1800000F3FF737AD002011B0BDE8F04F09F0D5
:101C2800D8BD904505D2BBF1000F03EA0600F3DAF0
:101C380029E5864A904506D9BBF1000F03EA06005C
:101C48003FF721ADE8E70022804BFEF785FA04460E
:101C58000D4673A3D3E90023FEF736FC72A3D3E93C
:101C68000023CDE9020120462946FEF72DFC00227B
:101C7800774BCDE9040120462946FEF725FC0246AC
:101C88000B466BA1D1E90001FEF766FA22462B4606
:101C9800FEF71AFC02460B4600206B49FEF75CFA79
:101CA8008046894622462B4620462946FEF70CFCEC
:101CB80002460B4640464946FEF706FC5EA3D3E9BA
:101CC8000023FEF701FC02460B46DDE90401FEF79E
:101CD80043FA02460B4604460D46DDE90201FEF7CB
:101CE8003DFA002089468046DDE90223FEF734FAF2
:101CF80002460B4620462946013EFEF72DFA0022F1
:101D0800044656EA0A064FF000060D4618BF4F4B28
:101D1800B24608BF4F4BDDE90001CDE902235B461F
:101D28003246FEF719FA42464B46FEF7CDFBDDE98F
:101D38000023CDE9040120462946FEF7C5FB0246EB
:101D48000B46DDE90401FEF709FA5B463246CDE9A8
:101D5800000140464946FEF7B7FB0B46024680465F
:101D68008946DDE90001FEF7F9F93B4B04460D46CB
:101D780099428B4631DD01F13F4303F5E00303430C
:101D88000BD000220023DDE90201FEF70FFE801BC5
:101D980018BF012077E401245BE529A3D3E90023D8
:101DA800DDE90001FEF7DAF906460F4642464B46E2
:101DB80020462946FEF7D0F902460B4630463946FA
:101DC800FEF712FE30B300220023DDE90201FEF720
:101DD800EDFD003818BF012055E421F000431F4CE9
:101DE800A3423FD91E4B0B44034309D000220023D2
:101DF800DDE90201FEF7DAFD003818BF01200BE724
:101E080042464B46FEF7A8F9DDE90023FEF7E2FD5E
:101E18000028EBD140F2094328E000BFAFF300806F
:101E2800000000604715F73F44DF5DF80BAE543EF5
:101E3800555555555555D53FFE822B654715F73FE6
:101E4800FE822B654715973C0000E03F0000F03FFD
:101E58000000D03F0000F0BFFFFF8F40FFCB904055
:101E680000346F3F8C4A934225D91B15A3F2FE33E9
:101E78004FF4801A8948BBF1000F4AFA03FA4FF071
:101E88000002DA44CAF30A51A1F2FF3140FA01F024
:101E9800C1F1140100EA0A03CAF3130A40464AF4DE
:101EA800801A4AFA01FA4946B8BFCAF1000AFEF791
:101EB80053F980468946002440464946DDE9002317
:101EC800FEF74CF90D46204663A3D3E90023FEF73D
:101ED800FBFA424606460F464B4620462946FEF781
:101EE8003BF902460B46DDE90001FEF735F95CA334
:101EF800D3E90023FEF7E8FA8046894620462946BA
:101F080059A3D3E90023FEF7DFFA02460B46404601
:101F18004946FEF723F904460D4602460B4630466D
:101F28003946FEF71BF93246804689463B46FEF79E
:101F380013F902460B4620462946FEF70DF942469C
:101F480006460F464B4640464946FEF7BDFA04464C
:101F58000D4647A3D3E90023FEF7B6FA46A3D3E913
:101F68000023FEF7F9F822462B46FEF7ADFA44A304
:101F7800D3E90023FEF7F2F822462B46FEF7A4FA2F
:101F880041A3D3E90023FEF7E7F822462B46FEF7E4
:101F98009BFA3FA3D3E90023FEF7E0F822462B463D
:101FA800FEF792FA02460B4640464946FEF7D4F839
:101FB80004460D4602460B4640464946FEF784FA5B
:101FC80000224FF08043CDE9000120462946FEF764
:101FD800C3F802460B46DDE90001FEF79FFB3246D7
:101FE80004460D463B4640464946FEF76DFA3246E2
:101FF8003B46FEF7B3F802460B4620462946FEF755
:10200800ABF842464B46FEF7A7F802460B460020BF
:102018002349FEF7A1F801EB0A54B4F5801F06DA4C
:10202800524607F03DFADDE90223FFF774BB21466B
:10203800F9E700240025FFF7E0BA194B98453FF46B
:10204800C4ADB8F1000F7FF4D8AB012E7FF4B9AA64
:10205800FFF7D3BAAFF3008000000000432EE63F3D
:10206800EF39FAFE422EE63F396CA80C615C20BEBF
:10207800D0A4BE726937663EF16BD2C541BDBB3E86
:102088002CDE25AF6A56113F93BDBE166CC1663F64
:102098003E5555555555C53F0000E03F0000F0FF3F
:1020A8000000F03F38B50C46AC490546FFF7F0F99B
:1020B80018B9BDE8384000F0EBBF2846A849FFF73B
:1020C800E7F918B9BDE8384000F0EEBF2846A54941
:1020D800FFF7DEF938B92046FEF7DCFFBDE83840E7
:1020E80080B200F073BD28469F49FFF7D1F948B97F
:1020F80021469E48032200F0FFFA2046BDE83840FA
:1021080000F0F2BE28469A49FFF7C2F948B92146BD
:102118009848032200F0F0FA2046BDE8384000F065
:10212800F3BE28469449FFF7B3F948B921469348C6
:10213800032200F0E1FA2046BDE8384000F0F4BE82
:1021480028468F49FFF7A4F948B921468748032252
:1021580000F0D2FA2046BDE8384000F0F5BE284627
:102168008849FFF795F948B921468248032200F0CB
:10217800C3FA2046BDE8384000F0F6BE284682493A
:10218800FFF786F948B921467C48032200F0B4FAE3
:102198002046BDE8384000F0F7BE28467B49FFF7E7
:1021A80077F948B921467A48032200F0A5FA204673
:1021B800BDE8384000F0A2BF28467649FFF768F925
:1021C80048B921467448032200F096FA2046BDE833
:1021D800384000F08DBF28467049FFF759F948B9D3
:1021E80021466F48032200F087FA2046BDE83840B0
:1021F80000F0DABE28466B49FFF74AF930B92046A5
:10220800FEF748FFBDE8384000F0E4BE28466649BE
:10221800FFF73EF948B921466448032200F06CFAFA
:102228002046BDE8384000F0CFBE28466049FFF799
:102238002FF938B92046FEF753FFBDE8384080B281
:1022480000F0CEBE28465B49FFF722F938B9204690
:10225800FEF746FFBDE8384080B200F0C7BE28460A
:102268005549FFF715F948B921465448032200F0AB
:1022780043FA2046BDE8384000F0BEBE2846504923
:10228800FFF706F938B92046FEF72AFFBDE83840BF
:1022980080B200F0B7BE28464A49FFF7F9F848B9B6
:1022A80021464948032200F027FA2046BDE8384075
:1022B80000F0AEBE28464549FFF7EAF848B921467E
:1022C8004348032200F018FA2046BDE8384000F0E1
:1022D800A5BE28463F49FFF7DBF838B92046FEF788
:1022E800FFFEBDE8384080B200F09EBE28463A495D
:1022F800FFF7CEF850B920460021FEF799FEBDE859
:102308003840B0FA80F0400900F094BE28463349BE
:10231800FFF7BEF838B92046FEF7E2FEBDE83840C0
:1023280080B200F091BE28462D49FFF7B1F838B9C0
:102338002046FEF7D5FEBDE8384080B200F090BEDA
:1023480028462849FFF7A4F800284DD12046FEF773
:10235800C7FEBDE8384080B200F08EBED0C4000091
:10236800DFC40000ECC40000FDC400000FC500007D
:102378002DC500003FC5000059C500006BC5000011
:1023880087C5000099C50000ABC50000BDC50000A9
:10239800C1C50000CCC50000D0C50000DBC50000E9
:1023A800F0C5000009C600001CC6000029C60000D0
:1023B8003AC600004DC6000066C6000076C600009A
:1023C8008AC60000A4C60000BFC60000DEC6000022
:1023D800F9C6000018C700002AC700003DC7000062
:1023E80050C700006BC7000028463F49FFF750F868
:1023F80050B920460021FEF71BFEBDE83840B0FA70
:1024080080F0400900F05CBE28463849FFF740F8E4
:1024180038B92046FEF764FEBDE8384080B200F0C7
:1024280055BE28463249FFF733F848B921463148A6
:10243800032200F061F92046BDE8384000F04CBEA8
:1024480028462D49FFF724F848B921462B4803228E
:1024580000F052F92046BDE8384000F043BE284657
:102468002749FFF715F820B92046BDE8384000F0A5
:10247800C7B928462349FFF70BF838B92046FEF7B5
:102488002FFEBDE8384080B200F0C0B928461E498A
:10249800FEF7FEFF38B92046FEF722FEBDE83840B9
:1024A80080B200F0B9B928461849FEF7F1FF38B9EB
:1024B8002046FEF715FEBDE8384080B200F0B2B9FC
:1024C80028461349FEF7E4FF18B9BDE8384000F084
:1024D80089B928460F49FEF7DBFF18B9BDE838402F
:1024E80000F072B938BD00BF85C7000095C700006D
:1024F800A6C70000F9C60000AEC70000BAC70000B2
:10250800CDC70000E2C70000F1C7000000C8000006
:1025180016C800002CC8000008B5024808F05DF88D
:10252800002008BD44C800001FB5622803460CBF40
:10253800084809480068CDE9011202228DF80C20EC
:10254800826801A994680122A047003818BF0120B9
:1025580004B010BD040000200000002008B50A4B9C
:10256800186808F025FE20B9084808F036F8ED206C
:1025780008BD074B186808F01BFE0028F4D0054872
:1025880008F02BF80020F3E70400002059C80000E9
:10259800000000207CC800001FB5622803460CBF5D
:1025A800084809480068CDE9011203228DF80C207B
:1025B800826801A994680122A047003818BF012049
:1025C80004B010BD04000020000000202DE9F047F1
:1025D800294C002124222046DFF8A0A0DFF8A09093
:1025E800DFF8A080284F294E294D09F007F964210A
:1025F8002046C4F804A0C4F80890C4F80C802761E9
:102608006661A56108F0BEFD30B1224807F0E5FF1C
:1026180001242046BDE8F087204604F065FC002828
:10262800F3D11D49204608F0B3FD014608B11B4807
:10263800ECE71B4C2422204609F0E0F865212046EF
:10264800C4E901A9C4E90387C4E9056508F09AFD4E
:1026580008B11448DAE7204604F046FC0028F8D10F
:1026680020460D4908F094FD044608B10E48CDE710
:102678000E4807F0B2FFCCE7D4060020652500001D
:1026880021250000A12500003125000061A30000DC
:1026980047A3000098C8000033335340B4C8000073
:1026A800B0060020DFC80000FBC8000026C90000F3
:1026B80013B50D4B0D4C0DF10602002918BF1C4631
:1026C8000146204604F08AFC28B1094807F085FF36
:1026D800012002B010BD2046BDF8061004F038FCF9
:1026E8000028F6D00348F1E7D4060020B006002001
:1026F80059C9000074C90000062A28BF06222DE91E
:10270800F043074685B010460D461646FDF762FEB3
:1027180002460B4600201749FEF736FF804628463A
:102728008946FEF7B7FC04463346134A102168462B
:1027380006F00AF82046FEF793FA01462846FEF707
:10274800D9F9494605464046FEF758F9FEF788FA92
:1027580001462846FEF7D8FAFEF79CFC80EAE073AB
:10276800A3EBE07322463946684607F036FF05B00A
:10277800BDE8F083000024408CC9000000B589B092
:1027880000220023CDE9062300230222CDE90133EC
:10279800CDE9032300934FF48062064B06490748AE
:1027A80004F0D8FD064B1860064809B05DF804EB44
:1027B80005F0AABFB1140000E01000204802002074
:1027C800F8060020BCC9000008B5044B186808F0DA
:1027D800EFFDBDE80840024805F096BFF806002066
:1027E800E2C9000008B5044B186805F087FABDE88F
:1027F8000840024805F088BFF8060020FEC900001E
:10280800014B1860704700BF08000020014B9880FA
:10281800704700BF08000020014BD880704700BFF8
:1028280008000020014B1881704700BF08000020F5
:1028380030B5194887B007F0D0FE1422002101A84E
:1028480008F0DCFF32232221009323230324CDE95F
:102858000213124A694612488DF8124000F01EFE13
:10286800104B984215D10E4800F05AFE214600221E
:10287800092001F0EFFB092001F0BCFB00250A4C00
:10288800237803B1257000214FF4A47005F00EFBE6
:10289800F6E707B030BD00BF18CA0000E128000005
:1028A800140000200000AD0B82100020022910B592
:1028B800144603D9BDE8104007F01DBD018805483E
:1028C80049BA118089B207F088FE2088BDE8104017
:1028D80000F07CB93ACA000008B50378032B0ED083
:1028E800042B16D0E3B900F0C7FC0E49030A487060
:1028F8000B700222BDE808400B4800F045BE0022DC
:10290800084B0A491A8008484022BDE8084000F0F0
:1029180065BE4168064A0548BDE80840FFF7C6BFDE
:1029280008BD00BFC3100020140000208310002041
:102938007010002000B589B000220023CDE90623DD
:1029480000230222CDE90133CDE9032300934FF49C
:102958000062044B0449054804F0FCFC09B05DF82A
:1029680004FB00BF39280000E0140020C802002042
:10297800F8B51C4C1C4E94F8943073B394F88B3013
:102988005BB3B4F89030B4F88C10B4F862205B1ADA
:102998009A420EDA01234FF40040002184F8953062
:1029A80007F030FD0023304684F8953007F015FE17
:1029B800E1E74FF47A734FF4004740F2E730002123
:1029C800B4F88E504FF47A725D430023E5FB07019B
:1029D800FEF7F6FB07F016FDCDE74FF48040002127
:1029E800F8E700BF280700204CCA00002022002179
:1029F80008B5074808F002FF002300200021054A17
:102A08001360054A1360054BC3E9000108BD00BF08
:102A180008070020040700200007002048040020C1
:102A28000246F8B5134D144F2B68144C57F8236021
:102A3800D4E90001801B47F8232061EBE6710133DC
:102A4800101841EBE2715A4202F0070203F0070343
:102A580058BF53420A4A2B601368C4E90001072B88
:102A6800DCBF013313601268D317FEF759FB054B1F
:102A78001860F8BD0407002008070020480400205B
:102A880000070020FC0600202DE9F047B0F85C5054
:102A980004466D1A456628461646FDF7ABFC4A4BB8
:102AA8008046186821F00049FDF7B6FC02460B463F
:102AB80040464946FDF77AFF18B100236363BDE835
:102AC800F087002DD4F85890B4F870A045DD0027A1
:102AD80048463946FEF7B6FA00B167652846FEF75C
:102AE800BFF8014607462068FEF70EF93146A06197
:102AF8003846FEF709F9616DFDF7FEFF216DFEF717
:102B080003F9804660655046FEF7AAF8014640463C
:102B1800FEF7B6FA18B15046FEF79EF86065616D8B
:102B28006068FEF7F1F8494620623846FDF7E2FF93
:102B38003146FEF79DF9A168FEF7E6F80646216AD8
:102B4800E061A069FDF7D8FF3146FDF7D5FF606366
:102B58002846FEF785F8A065B1E706D00027484665
:102B68003946FEF78DFA00B167652846FEF778F812
:102B780001468046E068FEF7C7F83146A061404646
:102B8800FEF7C2F8616DFDF7B7FF216DFEF7BCF8DF
:102B98000746CAF10000FEF763F882460146384648
:102BA800FEF750FA00B15746394620696765FEF7C7
:102BB800ABF8494620624046FDF79CFF3146FEF7D8
:102BC80057F96169B8E700BF1C0000202DE9F843F8
:102BD8000646FEF741F83C4C0546B4F85C00FEF7A3
:102BE8003FF801462846FDF785FF314620F00047AB
:102BF800364807F0F2FCB4F88000FEF731F83946A1
:102C0800FEF720FA002780BB3149606DFEF77CF89B
:102C180094F88A3094F89690606543B3B4F88800C5
:102C2800FEF71EF829468046FEF70CFAF8B1B9F10E
:102C3800000F1FD141462846FDF75CFFD4F88410E9
:102C4800FEF762F84146FDF757FFFEF749FA81B2F1
:102C58002048A4F85C1007F0C0FCA765B4F85C1025
:102C68001D48BDE8F84307F0B8BC3846D0E7B9F1CD
:102C7800000F26D0B4F88800FDF7F2FF064601469B
:102C88002846FDF737FFD4F8A010FEF73DF80146B7
:102C98003046FDF72FFF0546B4F89A603046FDF739
:102CA800DFFF2946FEF7ECF918B13046FDF7D4FFEF
:102CB80005462846FEF714FA81B2A4F85C100748C6
:102CC800C9E7A4F85C60C8E7280700203ACA0000F2
:102CD8003333733F69CA00003ECA00007BCA000054
:102CE80000B589B000220023CDE906230023052280
:102CF800CDE90133CDE9032300934FF40062044B7F
:102D08000449054804F026FB09B05DF804FB00BF40
:102D1800692D0000E0200020C803002000B589B01C
:102D280000220023CDE9062300230622CDE9013342
:102D3800CDE9032300934FF48062054B054906480B
:102D480004F008FB054809B05DF804EB07F045BC42
:102D580079290000E01C0020480300208DCA0000EB
:102D68002DE9F8434C4805F0CFFC4FF496614B4CE5
:102D78004B4AA4F85C104B494FF07A5321654FF445
:102D880096712260E2673222E1664FF4C87163608F
:102D9800A4F88020444B0022E3604FF07C530025C8
:102DA800A4F870104149424861674249A4F862207A
:102DB800A1674149A4F89420C4F8841084F89620A7
:102DC8003E493F4AC4E9220123613E496361636287
:102DD800A362A26323643C4A3C4BE263C4F89010AC
:102DE800A5606563A564E56225636565A56563649B
:102DF800374BDFF8E080C4F89830374BDFF8DC90C9
:102E0800C4F8A03007F0F0FA064607F0EDFA40F2F1
:102E18006760002107F0F6FAFFF7E8FDFFF77EFF8D
:102E28002F4805F071FC00F027FA94F89430A4F8C4
:102E3800620013B194F8951001B3FFF7F1FDA06695
:102E480007F0D2FA074607F0CFFA801B61F10001BC
:102E5800FDF71CFF4146FEF70BF829460646FEF72C
:102E6800FBF800B14E461F4B324619680B48FFF776
:102E78000BFE0A4807F0C8FA3E46D4E72846FFF793
:102E880017FC01212846FFF713FC40F6CD4000212E
:102E980007F0B8FAC7E700BFAFCA0000280700204C
:102EA8009A99193F72F97F3FCDCCCC3E6666E63FD2
:102EB8004C040001320001000000204132000500EE
:102EC8009A99993E4C047E0466662640000040406C
:102ED800D007960000007A4400002841CDCCCC3DB4
:102EE800C1CA0000FC060020054B10B51860FDF7AC
:102EF80093FABDE8104002460B46024805F0F2BBC3
:102F080028070020D2CA0000054B10B55860FDF70D
:102F180083FABDE8104002460B46024805F0E2BBC2
:102F280028070020E2CA0000054B10B59860FDF79D
:102F380073FABDE8104002460B46024805F0D2BBC2
:102F480028070020F2CA0000054B10B5D860FDF72D
:102F580063FABDE8104002460B46024805F0C2BBC2
:102F68002807002002CB0000054B10B51861FDF7BB
:102F780053FABDE8104002460B46024805F0B2BBC2
:102F88002807002012CB0000054B10B55861FDF74B
:102F980043FABDE8104002460B46024805F0A2BBC2
:102FA8002807002022CB0000054B10B51865FDF757
:102FB80033FABDE8104002460B46024805F092BBC2
:102FC8002807002032CB0000014B1860704700BF73
:102FD8001C000020014BD866704700BF280700205E
:102FE800014BA3F87000704728070020014BA3F895
:102FF8008000704728070020014B5867704700BFC2
:1030080028070020014BA3F8780070472807002004
:10301800014BD867704700BF28070020014BC3F851
:103028008400704728070020014BA3F888007047E8
:1030380028070020024B83F88A00024805F064BB89
:10304800280700204BCB0000034B0146A3F8900053
:10305800024805F047BB00BF2807002057CB0000F7
:10306800034B0146A3F88C00024805F03BBB00BFA8
:103078002807002072CB0000034B0146A3F88E00FE
:10308800024805F02FBB00BF2807002095CB0000A1
:103098000122034B034883F8942005F035BB00BF99
:1030A80028070020BACB00000022034B034883F80E
:1030B800942005F029BB00BF28070020C9CB0000D9
:1030C800014B83F89600704728070020014BA3F8AE
:1030D8009800704728070020014BC3F88400704708
:1030E80028070020014BC3F8A000704728070020DC
:1030F800014B5862704700BF28070020014B9862B7
:10310800704700BF2807002010B586B00DF10703EF
:103118000122039302238DF8070004928DF81430DE
:10312800054803A983689C687623A047003818BF20
:103138000120400006B010BD04B9000080B5114D53
:10314800114E124F8AB04FF4FA7395E8070007AC96
:1031580084E807005022CDE9023340233146CDE907
:103168000032204606AB05AA03F032FE20B96422DD
:10317800059B93FBF2F33B800021212004F096FE8F
:10318800E1E700BF40BB000074100020721000206F
:103198001FB50323CDE901018DF80C300648012243
:1031A800836801A99C687623A047003818BF0120CE
:1031B800400004B010BD00BF04B9000010B58CB0C9
:1031C800204807F0F5FF30B91F4807F006FA6FF0FE
:1031D80012000CB010BD1D4807F0FFF91C4B09ACDC
:1031E80093E8070084E80700204607F0A3FF28B10A
:1031F800184807F0F2F96FF00400EAE7164807F0FC
:10320800ECF92046154903F09FFD044608B114481F
:10321800EFE7144807F0E1F900220023CDE906237F
:1032280002234FF40062CDE902430F490F4BCDE969
:1032380000440F48049404F08DF80E4807F0CDF9C7
:103248002046C6E704B90000D6CB0000F1CB000049
:1032580040BB000006CC00001DCC0000741000200C
:1032680036CC00005ECC0000E0280020453100008C
:103278005004002082CC0000014B1888704700BF22
:103288007210002030B4D1E9003253EA020425D08C
:10329800003B18BF01230AB143F002030A7D32B98B
:1032A800D1E902540268C2F80855C2F80C45026810
:1032B8000C78C2F8884502680979C2F88C1502684A
:1032C800C2F894350C2203795343064AD3583BB1CC
:1032D80030BC006840F3073000F08CBE0123DDE706
:1032E80030BC7047CC0700200123F7B58B724F7AAA
:1032F8000E464FF48271054607F048F94FF4927173
:103308000446284607F042F94FF4A67104432846BC
:1033180007F03CF94FF4A8710443284607F036F942
:103328004FF4B2710443284607F030F94FF4B471F2
:103338000443284607F02AF90443FFB220D0013F8E
:10334800032F03D8DFE807F02A30515714F002039F
:1033580004D034F00204F9D1002711E014F080629F
:1033680030D014F4801F8DF8003024F0C3640CD0E2
:10337800694630468DF8043007F017F9A4B90227DA
:1033880000237772B37203B0F0BD01276946304657
:103398008DF8047007F009F9002CF1D02A4B1C4273
:1033A80045D034F48014EAD0284B1C423FD0012386
:1033B8008DF80030D5F84C3569463046019307F052
:1033C800F4F8C6E7A30129D5032714F4002F8DF8D4
:1033D800007024F0C36417D10123694630468DF884
:1033E800043007F0E2F8002CCAD0194B1C4224D054
:1033F80034F4002410D0154B1C421ED004238DF841
:103408000030D5F83C35D7E7694630468DF80420BA
:1034180007F0CBF8002CEED10427B1E70621D5F848
:10342800D024C5F8D024304607F0C4F894E7D5F87E
:10343800D0240221C5F8D024F5E7D5F8D0240521F9
:10344800C5F8D024EFE700BF02001006020000060E
:103458000200080600F01F03400911D0012811D10D
:103468000B4A02EB8302D2F800020A4B034043EAFC
:10347800810141F4C06141F00201C2F800127047B5
:10348800054AEEE70022803352F82330FFDE00BF02
:1034980000288450F0F0FCFF002584502DE9F84FF7
:1034A8000C2790F804A01B4D07FB0AF705EB070B48
:1034B8009BF8083006460C4690464BBBD0F8009067
:1034C800C9F8003549F3073000F0A2FD4FF0FF338B
:1034D80045F80780C9F808337CB1E37C8BF80B30DA
:1034E8003BB9217CA068FFF7B5FF617CE068FFF776
:1034F800B1FF21463046FFF7C5FE0C2303FB0A55F2
:103508000023AB726B72012303482B72BDE8F88F5E
:103518000248FBE7CC0700200000AD0B0C00AD0B08
:10352800002203680079C3F80421D3F80411C3F812
:103538002421D3F82411C3F84C21D3F84C11C3F833
:103548005021D3F85011C3F86421D3F864110C2129
:103558004143C3F86821D3F86821094A515811B189
:103568000849C3F804130921C3F800150C230221E4
:1035780003FB0023002219725A605A72704700BF79
:10358800CC0700200202180630B50C2504790E4B32
:1035980005FB04331B7A022B10D101F06043B3F111
:1035A800005F0DD1B2F5803F0CD203680748C3F81D
:1035B8004415C3F8482501225A6330BD0448FCE786
:1035C8000448FAE70448F8E7CC0700200000AD0BF0
:1035D8000500AD0B0A00AD0B0600AD0B30B50C2590
:1035E80004790E4B05FB04331B7A022B10D101F032
:1035F8006043B3F1005F0DD1B2F5803F0CD2036890
:103608000748C3F83415C3F8382501221A6330BDBA
:103618000448FCE70448FAE70448F8E7CC07002028
:103628000000AD0B0500AD0B0A00AD0B0600AD0B9D
:1036380003498B7A13B90348FFF756BE704700BF9A
:10364800CC07002000900050014B1B68184700BFB2
:103658002000002030B585B004460D461022002118
:10366800684608F0CBF802238DF80230044B2A464E
:1036780021466846019305F08BFA05B030BD00BFBE
:103688005136000080B505460E461746984604F0A8
:1036980041FC034608F0C8F80446DFF81890424693
:1036A80049F8003039463046A84754F8090000F078
:1036B8002FFC00BF080000002DE9F047058B0446E9
:1036C8002807904611D4022905F0070540F0CD805F
:1036D800204607F06FF878B10138218B042811D8FB
:1036E800DFE800F0C3106D85950001290CBF45F097
:1036F800100545F02005258388F31188BFF36F8FE7
:10370800BDE8F08701F0070AAA4500F0A680002767
:10371800B9463E46A368002B00F0BD8041F0080181
:10372800218388F31188BFF36F8FA168002900F007
:10373800BB800D68002900F0B7803346524620460A
:10374800D1F80480C047002D76D02B6829461D4645
:10375800F0E701F007035A1F012A1BD8002221F0C5
:103768000701062B276889B2C4E9002209D13B4624
:1037780003E0628B013262831B68002BF9D141F0B0
:1037880002012046218307F015F800287BD041F07C
:10379800200177E0042B0AD121F0070189B22046E5
:1037A800218307F007F810B141F020012183218B14
:1037B80001F0070AAA4550D00027B946AAE72369AD
:1037C80021F0070141F00601062DD3F8009021836E
:1037D8002DD1B9F1000F40D041F00801218388F3C1
:1037E8001188BFF36F8F20463949C84729E021F077
:1037F8000701236941F0040189B2042DD3F804902C
:103808002183E6D000274FF0040A3E4682E721F0E4
:103818000701236941F0050189B2052DD3F8089005
:103828002183D6D000274FF0050A3E4672E70027CD
:103838004FF0060A3E466DE72B4687E7B9F1000FC1
:10384800D1D14FF02003EFF3118883F31288BFF32F
:103858006F8F238B23F008032383258BEA062ED54D
:1038680025F01003238305F007056669218B002ED8
:10387800BFF66FAF00232768C4E9003321F00701C2
:1038880041F001012183218B4FF0000901F0070A63
:10389800AA457FF43FAF002F9BD041F00801218358
:1038A80088F31188BFF36F8F002FC7D03D68394662
:1038B80033465246204606F0A9FF2F46F4E7AB06EA
:1038C8007FF51AAF25F02003238305F00705FFE6EF
:1038D80041A80000044608B54FF02002EFF3118319
:1038E80082F31288BFF36F8F02F010F8204600F0C1
:1038F800C5FA034806F071FE00F01AFCFCE700BFA9
:10390800A2CC0000014B03600020704718BE0000E5
:10391800014804F0A5BD00BF18BE000038B5044634
:1039280018B90F4B0F485B6898476168B1F5683F55
:1039380010D0B1F5680F0DD00B4DA9420AD011F483
:103948006861206807D00146084807F064FC002336
:103958002360656038BD142207F050FFF9E700BF07
:103968003C010020CBCC00002C5F5CA9D80C0020C7
:1039780008B560B34368B3F5683F0ED0B3F5680F78
:1039880018D0144A934220D000684FF0FF324FF00D
:10399800FF3303F093FD58B115E001220368D3E823
:1039A800EF1F002903D1C3E8E02F0028F7D10AD17F
:1039B800002008BD0368084A1B7803F5807352F895
:1039C8002330002BF4D00548F3E70548F1E76FF4FE
:1039D800E040EEE72C5F5CA900000350E98FFFFF91
:1039E800EA8FFFFF08B520B34368B3F5683F09D0F5
:1039F800B3F5680F13D0114A93421DD0006803F045
:103A080021FD14E000220368D3E8EF1F012903D148
:103A1800C3E8E02F0028F7D109D0094808BD0021E4
:103A28000368084A1B7803F5807342F823100020C6
:103A3800F4E76FF4E040F1E70348EFE72C5F5CA997
:103A4800E98FFFFF00000350EA8FFFFF10B504461F
:103A580018B91D4B1D485B6898476368B3F5683F04
:103A68002FD0B3F5680F2CD0194A934219D1236887
:103A780003BB4FF0FF324FF0FF332146154803F0E8
:103A8800FDFB08B923681BB90F4B13485B689847BF
:103A980014220021206807F0B1FE4FF468636360C8
:103AA80008E0B3F5683F0DD83A2B03D040F6BA6268
:103AB8009342DED1206807F0F3FB636843F03A03D2
:103AC800636010BD054AF3E73C010020CBCC000041
:103AD8002C5F5CA9D80C0020F1CC00003A00003A19
:103AE80008B5064940231422054807F086FBBDE8BF
:103AF80008400449044804F025BD00BFD807002049
:103B0800D80C002020BE000034BE000030BFFFF7F4
:103B1800FDBF00BF114B124A2DE9F041D518013DF8
:103B2800B5FBF3F5DFF83C805D430F4B074608EB28
:103B38000304013CB4FBF3F403FB04540E1B3046AE
:103B48000A4907F04EFE701942460021083E07F068
:103B580055FE3E6704F10800BDE8F0810100000051
:103B680000000000080000000400000040BB000046
:103B7800044B99685869884203D003494FF0805232
:103B88000A607047600E002004ED00E0154B9A6A49
:103B980012F0007F9A6A14BF1E201D2012F0807F49
:103BA8009A6A18BF1F2012F4801F9A6A18BF022051
:103BB80012F4002F9A6A18BF212012F4802F9A6AF3
:103BC80018BF222012F4003F9A6A18BF232012F46B
:103BD800803F9A6A18BF24206FEA02426FEA1242B5
:103BE8009A62704700ED00E010B5194B0246986ADA
:103BF8009C6A10F4805F14BF1720162014F4006F1D
:103C08009C6A18BF1820A40509D5986B986A000407
:103C180004D51AB19A6A22F400429A6219200C4B10
:103C28009A6A12F4806F9A6A18BF1A20D2050CD4C7
:103C38009B6A13F4005F18BF1C20054A936A43F47B
:103C48007F43936200230B7010BD1B20F5E700BF74
:103C580000ED00E010B51C4B0246986A9C6A10F013
:103C6800100F14BF1120102014F0080F9C6A18BF01
:103C78001220A40709D5586B986A000604D51AB112
:103C88009A6A22F080029A6213200F4B9A6A12F005
:103C9800010F9A6A18BF142012F0200F9A6A18BFF1
:103CA8001520D40658BF9B6A074B9A6A920642BFF2
:103CB8005A6A22F400525A629A6A42F0FF029A62E1
:103CC80000230B7010BD00BF00ED00E0F0B5474BBE
:103CD80004465B6800258BB0C3F3080385F311889D
:103CE800BFF36F8F02F07F40B0F17F4F11D102F028
:103CF8000C0008280DD010074CBF0C4601250022E7
:103D0800033B8DF80720032B05D8DFE803F0246276
:103D1800665F2C46F3E700239DF80720CAB902AE78
:103D280004F12007324620686168083403C2BC42A7
:103D38001646F7D1099A002D53D0C2F3080121B9CC
:103D48006FEA52226FEA42220992184602A906F047
:103D580034FE0BB0F0BD254BDA6A9107DBD4DA6A82
:103D6800002AD8DBDA6A5200D5D55A69A16942F42B
:103D780080725A61BFF34F8FBFF36F8F5A6931F862
:103D8800021C22F480725A61BFF34F8FBFF36F8F0A
:103D98004DF60272914209D09A6AD2B242B101201C
:103DA8000DF10701FFF756FF0346B5E72368B3E7B0
:103DB8009A6A12F47F4F05D001200DF10701FFF731
:103DC80013FFF1E79B6AB3F5803FA4D3FFF7DEFE4C
:103DD800EAE700200DF10701E4E700200DF10701F3
:103DE800EDE722F4FF7222F00102ADE700ED00E0FA
:103DF800044B5A6942F010025A615A6942F48062CF
:103E08005A61704700ED00E0EFF30880EFF3098195
:103E180001B57246FFF75AFF01BD00BF002080F3CD
:103E28001488BFF36F8F002080F30A8880F30B8813
:103E380000F060FC00200E490860BFF34F8F0D486A
:103E480080F3088800F03EF8202080F311880A48A3
:103E58004FF40061401880F30988EFF314800221C1
:103E6800084380F31488BFF36F8F00F009F900004E
:103E780094ED00E0204A0020E0300020BFF34F8F8F
:103E88000549064BCA6802F4E0621343CB60BFF3EE
:103E98004F8F00BFFDE700BF00ED00E00400FA050A
:103EA800002318460649D1F89020C2F3072293420E
:103EB80000DB7047C1F89830C1F8A0000133F6E77D
:103EC80000ED00E010B572B6002484F31388FFF704
:103ED800E7FF23464FF0FF300C4A03F1200101337E
:103EE800102B42F82100F8D100234FF0FF30074A89
:103EF80003F160010133102B42F82100F8D162B6BA
:103F0800BFF34F8FBFF36F8F10BD00BF00E100E01C
:103F1800084B9B6883420BD1EFF3058343B1064BF3
:103F28005A6842F080525A605A6A22F400425A6231
:103F380007F0DABA600E002000ED00E06FF00A0129
:103F4800084A93689967084958674B6843F0805353
:103F58004B60002383F31188BFF36F8F9368986FCA
:103F6800704700BF600E002000ED00E016498A6827
:103F78004FF030001044EFF3098C80E8F01F202048
:103F880080F31288BFF36F8F104F4FF000664A69B5
:103F98008A603E604FF07004141920680C4C206051
:103FA800506F0023536780F3118802F1300090E8C6
:103FB800F01F8CF3098802F1000004B506F00EFD2D
:103FC800BDE8044070470000600E002004ED00E0EA
:103FD800F40C00201EF0040F0CBFEFF30880EFF381
:103FE8000980816911F8021C0229FFD001B506F089
:103FF800E6FC01BD40B2002807DB01234109034A62
:1040080000F01F00834042F82130704700E100E0D3
:1040180040B200280CDB01220649430900F01F00CA
:104028008240203341F82320BFF34F8FBFF36F8FB7
:10403800704700BF00E100E0054B420953F8222019
:10404800012300F01F0003FA00F01040704700BF82
:1040580000E100E040B2002801F10101ACBF00F12D
:104068006040064B4FEA4111C9B2ABBF00F5614051
:1040780000F00F0080F800131954704714ED00E0A9
:104088000B4A08B50B4B22F07F029A60BFF34F8FA3
:10409800BFF36F8FD3F8882022F47002C3F888200A
:1040A80003F020F803F04EFF00F078F803F064F80E
:1040B8000000000000ED00E042F8203C009B0B49A6
:1040C80042F81C3C019B21F0010142F8183C029B7C
:1040D80042F8081C42F8143C4FF0807342F8043C44
:1040E8000023203A02654367704700BF8D36000001
:1040F8000A4B046F98600A4B1C60036E83F30B88AD
:10410800104681F30988002163B681F31188BFF353
:104118006F8F00220023FFF7B5FA00BF600E002062
:10412800F40C0020014910220A60704710ED00E0ED
:1041380072B6404080F31188BFF36F8F01B500F06D
:1041480095FA00280AD0BFF34F8F30BF00BF00BFD9
:1041580000BF00BF00BF00BF00BF00BFBDE80140F7
:1041680062B6BFF36F8F704772B6494081F311880A
:1041780001B500F07BFA00280AD0BFF34F8F20BFAB
:1041880000BF00BF00BF00BF00BF00BF00BF00BF2F
:10419800BDE8014080F3118862B6704700232021F2
:1041A8000348C2180133452B82F80013F9D1704730
:1041B80000E100E001B5EFF30580A0F110004FEA3F
:1041C800C0000449014409C99847BDE801400249B3
:1041D8000847000018B90000793B00001FB5094CDA
:1041E800094A23460121094800F0EAF8002303930D
:1041F800074B0121E41A01A80193029400F0EAF8A0
:1042080004B010BD000007200000002044BE0000DC
:104218004802002010B50C7A0B6804F01F0223F046
:104228001F031A43CB68640923F01F03054943EAB7
:10423800440343F00103C1F89800C1F89C20C1F879
:10424800A03010BD00ED00E02DE9F04F0F461446F8
:1042580006464FF000084E4D85B0B84580F2948070
:10426800D6F80490B9F1000F36D0B9F11F0F40F21B
:10427800898019F01F0F40F08580D6F800A01AF049
:104288001F0F7FD1504606F0ADFB834609EB0A00AD
:10429800013806F0A7FB834574D11BF1160F71D0C6
:1042A8005C456FDDC5F898B0D5F89C10C5F898B096
:1042B800D5F8A03021F01F0143F01F0AD6E90032DB
:1042C8001A44994202F1FF391ED1CA4508D1314634
:1042D8005FFA8BF006F08FFB08F101080C36BCE79B
:1042E8003146C5F898B0D5F89C3022F01F0203F08B
:1042F8001F031343C5F89C30E0B206F07CFB10F1B5
:10430800160F3FD0441CE7E7C5F898B0D5F8A020B1
:10431800013B23F01F0302F01F021343CA45314635
:10432800E0B2C5F8A030E8D006F065FB10F1160F32
:1043380028D0C5F898B0D5F89C209DF808300AF127
:10434800FF3A62F304038DF80830D5F8A0309DF8E1
:1043580008205B0863F347128DF80820D6E900327D
:104368001344009323F01F03411C5344A3EB090398
:10437800C8B223F01F030728039303D86946FFF741
:1043880049FFBFE76FF01504204605B0BDE8F08F80
:1043980000ED00E00522044BC3F89420BFF34F8FD3
:1043A800BFF36F8F704700BF00ED00E0BFF35F8F72
:1043B8000022024BC3F89420704700BF00ED00E0D4
:1043C80010B5034C2278FFF73FFF207010BD00BFE7
:1043D800C51000202DE9F74F294D8A4606464FF0B3
:1043E8000008AB46274FD0451BDAD6F80490B9F140
:1043F800000F3FD031680846019106F0F3FA0199A1
:10440800044609EB0100013806F0ECFA84424FF04B
:1044180014021D4B08D002FB08F36FF015024BF88D
:10442800032003B0BDE8F08F14F1160F2C60F8D00C
:104438001978A142F5DD02FB08B0C7F89840C7F823
:104448009840D7F89C4000F10801007B64F3040011
:104458000871D7F8A0000C79400860F347140C7174
:10446800D7F89C1021F01F016960D7F8A01021F03F
:104478001F01296108F1010814350C36B3E700BFA4
:10448800F80C002000ED00E0C5100020F0B5384D14
:1044980087B02C68082C67D80020FFF787FF354BBA
:1044A800354AC3F8C02084420DD1344D01A82C7080
:1044B800FFF728FA00240646314FA6420AD1FFF733
:1044C80069FF00204EE0696801EB0011FFF7A2FECA
:1044D8000130E8E70199200101EB0413DA683A405A
:1044E800B2F5001F22D0B2F5800F2CD0B2F5801F94
:1044F80036D15A689B680958013B22F01F000344D3
:104508000120844623F01F0340EA4C108DF8100068
:104518002878CDE902210728059321D802A9FFF7B9
:1045280079FE2B78013401332B70C6E75A689B68F3
:104538000958013B22F01F0003444FF0020C0120F0
:1045480023F01F03E0E75A689B680958013B22F0F3
:104558001F0003444FF0000C062023F01F03D3E78D
:104568006FF0150007B0F0BD4FF0FF30FAE700BF5D
:1045780050BE000000ED00E0AAFF4400C510002076
:104588000000F0FF08B5024B1B689847002008BDE3
:104598000C0D002008B50649064821F00701C1F1B5
:1045A800005202F5E02206F0ADF8002008BD00BF79
:1045B80027520020100D002007B50DF1070006F066
:1045C8000CFC114B98421CD14FF480620F4B1049E0
:1045D800C3F8B8254FF40062C3F83C259DF80700DE
:1045E80006F0EFFB0B499DF8070006F0E5FB0120FC
:1045F8009DF80730984001F0D1FA002003B05DF82B
:1046080004FB6FF00B00F9E70000AD0B00A00250AF
:104618002CA0025028A10250054B03EB8000D0F8D3
:10462800003223F0E04343F04053C0F800327047B3
:1046380000258450012208B50A4B0B49C3F8002510
:1046480002230020C1F8D036FFF7E6FF1046FFF737
:10465800E3FFC1F80427C1F80429C1F8002B0020A2
:1046680008BD00BF0010005000400050052370B581
:10467800144D154E2C780134B4FBF3F303EB83038C
:10468800E41A06F083FB114A137823B156F8243054
:10469800C01A072814D94FF05023D3F8141141B188
:1046A8000021C3F81411D3F814312C700CB901236C
:1046B80013702C7806F06AFB46F82400012070BDC0
:1046C8000020FCE7C71000201C0D0020C6100020A9
:1046D80048B1054B054A1B68B3FBF2F35843044B3A
:1046E80043F0010318477047A800002040420F001C
:1046F80050BB000001F034B9084B70B5C31A0D4621
:1047080007499B10044659434022064806F0B1F970
:104718002B4601462046BDE870401847440D00204E
:10472800B76DDBB6B4B80000402373B50B4C0093EB
:10473800041B0B460D460A49A41061430646094A64
:10474800094806F0C3F9011E05DA30462B4602B0C7
:10475800BDE87040184702B070BD00BF440D00208E
:10476800B76DDBB641AB0000B4B800002DE9F843E3
:104778000022012106460520FFF76CFC124801F0D3
:1047880013FA124B98421CD1306900F06DF90024DD
:1047980001F01CFA4FF01C090C27DFF8348035694A
:1047A800414609FB045006F055F8002807DB0123B1
:1047B80007FB04551C44042CAB67F0D10020BDE86E
:1047C800F8836FF00400FAE7114800000000AD0B11
:1047D8007CBE000001460C2300224B4370B50848FC
:1047E800C41878331844D4E91C56226706F02EF909
:1047F8002DB132462B46BDE870400248184770BDBF
:10480800440D0020B4B8000008B506281AD8DFE81F
:1048180000F004111919150F0D000B4B986F10F0CB
:1048280007000FD1BDE80840FFF7D4BF0220F9E721
:104838000320F7E700F026F90120F3E7BDE8084078
:1048480000F02EB908BD00BF440D002008B54FF098
:104858002003EFF3118183F31288BFF36F8F124A9D
:10486800136843F002001060DA0708D481F3118856
:10487800BFF36F8FBDE80840012001F0BFB94FF0CA
:104888005023D3F80C24D3F80C34DB07EED50748B3
:1048980006F0DCF881F31188BFF36F8FBDE808409C
:1048A8000020FFF797BF00BFE40D0020BC0D0020DB
:1048B8001FB500220123CDE902236B46084ACDF833
:1048C80000D0CDF804D006F030F9002805DB4FF40D
:1048D80080420023684602F08FFE05B05DF804FBB5
:1048E80071AB000010B54FF02003EFF3118483F390
:1048F8001288BFF36F8F074A136823F00201DB07A2
:10490800116002D4012006F01BFB84F31188BFF369
:104918006F8F10BDE40D0020F8B501220646264928
:10492800D1E8EF3FC1E8E02F0028F9D133B9234996
:1049380023484B60CB608A6005F09FFF731E012BF4
:104948001FD806F08EFC0446E0B91E4B1B78CBB18D
:104958004FF0502302220546C3F808234FF0502792
:10496800D7F81824D7F81834D20315D503F0030361
:10497800012B01D0012E0FD1C4B185F31188BFF3EB
:104988006F8FF8BD4FF02003EFF3118583F3128882
:10499800BFF36F8F0124E1E71CB12846FFF7E4FB62
:1049A800DEE70021212003F081FAD9E74FF05023F8
:1049B8000222C3F80423E4E7400D0020300D002054
:1049C800600D0020DB10002001220B4BD3E8EF1F05
:1049D800002903D1C3E8E02F0028F7D10AD100232A
:1049E8000649CB60064B4B6003238B60054B186868
:1049F80005F043BF704700BF040E0020EC0D0020F7
:104A0800494A0000E80D002007B5002200230948A4
:104A1800CDE900234FF40032002303F05FFC064B7E
:104A2800186805F082FF0022044B1A6003B05DF895
:104A380004FB00BFA8010020E80D0020040E0020A0
:104A480008B5002006F0B4FB28B901F03DF90122B1
:104A5800034B1A7008BD0348BDE8084002F0EABEDF
:104A6800C810002054000020034B044A186000239B
:104A78001360034A13607047E80D0020000E002001
:104A8800FC0D00200022024B1A70FFF79DBF00BFEB
:104A9800C8100020014806F087BD00BFA80100200B
:104AA800024A136801331360FFF7AEBF000E0020FF
:104AB800F0B5406801F01F04057B87B044EA45144F
:104AC8000569002D63D0B2F5001F00F1100506D16D
:104AD8002146284606F0B4FA002007B0F0BD0027AA
:104AE800B2F5800F01AE0197776039D1B3F1007F3D
:104AF80014BF052304238DF804300023CDE9046393
:104B08000393836823FA01F111F001011AD1B2F17C
:104B1800A07F17D104F01F03620903F180032AD094
:104B2800012A3AD11E4A52F82330DB070AD40DF184
:104B3800030632462146284601F0C4FB194B984229
:104B48001BD002962146284603AA01F077FA164B95
:104B580098421FD101222146284601F019FCBBE7E3
:104B6800B3F1C06F05D0B3F1007F14BF0123022356
:104B7800C1E70323BFE70D4AD5E73146284601F0D0
:104B880001FC094B9842DCD06FF00B00A5E76FF0F1
:104B98008500A2E76FF015009FE751F82330FFDE8C
:104BA800002884500400AD0B0000AD0B0025845094
:104BB80038B545682B69B3B11035284601F0D2FBEA
:104BC800044680B90146284601F096FB084B9842F6
:104BD8000BD122462846074901F06EFB22460521E3
:104BE8000D20FFF737FA002038BD6FF00400FBE70F
:104BF8000000AD0B014C00004209034670B502D01D
:104C0800012A17D070BD0D4E326951680029F9D0BC
:104C1800012503F01F030C689D400029F2D08A6823
:104C28002A4002D030464B6898472CB12368214669
:104C38001C46F2E7024EE7E72346F8E7DCB8000037
:104C4800C8B800002DE9F04340F206354668D006A2
:104C580048BF0320337B02EA050558BFC2F3401062
:104C680087B001F01F07B5F5837F144647EA43175D
:104C78008DF8030043D00FD8062D18D007D8B5B14A
:104C8800022D3ED06FF0150007B0BDE8F083B5F5F2
:104C9800807FF7D101250AE040F20222954232D006
:104CA800B5F5407F31D0B5F5007FEBD10225220361
:104CB8002DD5012372688B409360326982BB07F05F
:104CC8001F037F092AD0012F77D13E4A02EB8302C6
:104CD80084F48033D2F80012C3F30043C4F3404491
:104CE80044EA430421F4706144EA800421F00F018E
:104CF80044EA05230B43C2F800320020C4E7072525
:104D0800D5E70425D3E70525D1E70325CFE76303D6
:104D180041BF012372688B40D360CEE72A4AD5E7AA
:104D28001036394630460DF1020201F0CBFA14F480
:104D3800403F80460CD13946304606F07FF9234B78
:104D48009845DAD130469DF8021001F015FBD4E7FA
:104D58004FF0000901AB3946304603AACDE90439C2
:104D6800CDE90199CDF80C9001F068F9174B9842FC
:104D780088D114F4003315D09DF8033084F48034BE
:104D8800C4F300448DF80E3039464B46304603AA2A
:104D98008DF80C508DF80D4001F00CFA0B4B984231
:104DA800CDD06FE7CDE9043339460DF10303304622
:104DB80003AA039301F042F9F0E7803352F8233055
:104DC800FFDE00BF00288450002584500000AD0B92
:104DD80038B544680569E3699847206A05F043FFD8
:104DE80000280DDB2B462046074A04F1080101F094
:104DF80039FC064B984204D1204601F08FFC002074
:104E080038BD6FF00400FBE7554E00000000AD0B05
:104E180070B5446823682046D3F80855D3F80C6564
:104E280001F08CFC3146284601F024FF0546206A33
:104E380005F019FF204601F071FC034B9D4214BF99
:104E48006FF00F00002070BD0000AD0B0378012B40
:104E580008D0022B08D04BB9054B0B6201F11000AA
:104E680002F0A6BB034BF8E7034BF6E7034BF4E766
:104E78000000AD0B0100AE0B0200AE0B0100AD0B44
:104E88002DE9F04F934614221D46D0F804A08BB0AC
:104E98000669BAF8183080460C460DEB020000216E
:104EA800D6F82490029306F0A9FC8DF815504FF01F
:104EB800FF324FF0FF33304602F09EFB06F110033D
:104EC800019300270022002306F1100002F094FB52
:104ED8003D465F4501D3002460E0207A020700F1D7
:104EE800818001375F4521680AD2830708D4237D72
:104EF80080EA030202F0010203F004031A4307D018
:104F080025B901F06043B3F1005F17D0002300E03A
:104F180001236268DDF808E005EB020CF44564D86B
:104F2800C00705D409EB0500039306F05AFC039B60
:104F380062682A4495B2002B3FD1FDB90025236849
:104F480008936368227A069302F001018DF8141021
:104F5800BAF8241099424BD382F00202C2F34002FD
:104F68005046520105A901F007FC234B984209D08D
:104F78000B33984210D16FF00F040FE02B46CDF899
:104F88002090DFE74FF480420023019802F034FBC1
:104F980058B14046FFF73CFF6FF00404304602F07A
:104FA80007FB20460BB0BDE8F08F336A124A9342E4
:104FB800F2D1237ADB0702D400250C3489E7089B59
:104FC8009945F9D1234608E0A91AD8688DB219FA8B
:104FD80081F1039306F005FC039B5A680C3B95424C
:104FE800F2D2E9E76FF08504D8E76FF01B04D5E744
:104FF8006FF01B04D5E700BF0000AD0B036803F09A
:105008001F025B09026004D0012B034818BF00206F
:1050180070470248704700BF00288450002584501C
:105028002DE9F04F15468246DFF88C81DFF88C9128
:1050380085B000EB8101514503D1002005B0BDE8E2
:10504800F08FDAF80030C3F34322082A03F07F0414
:1050580000F2AC807F2C4FEA134308BF4FF0FF34B7
:1050680018F80270222B00F2A480DFE803F012196E
:105078001F22252B22A2A2A2A23B67A2A2A2A2A221
:10508800A2A2A2A26A7F8285A2A2A28890939699E0
:105098009C00C5F80C45601C5DD10AF1040ACAE7FA
:1050A800C5F81445621CF8D000265DE0C5F808452F
:1050B800F1E7C5F81045F5E7631CC5F80845ECD0DD
:1050C800002604E0661CC5F80C45E6D001264FF022
:1050D800010B03A80394FFF791FF039B0BFA03F35B
:1050E800C36008E0C5F80845002FDBD1631CD4D0A5
:1050F80000260627B346DAF8003003A803F4005266
:10510800002A1CBF01264FF0000B01930394FFF700
:1051180075FF039A019B00EB8200D0F80022C3F3CD
:10512800C1143B0243EA840343EA0B0302EA09027F
:10513800134343EA4603C0F80032AEE7C5F80C450E
:10514800D2E7C5F86045601CDAF80030A5D0C3F393
:105158008033002BBAD0012603A80394FFF74EFF33
:10516800039B06FA03F38360B346C4E7C5F86445B6
:10517800E9E7C5F86845E6E7C5F86C45E3E7C5F82B
:105188002445621C89D001264FF0000BB3E7C5F80F
:10519800284580E7C5F83045F3E7C5F83445F0E71A
:1051A800C5F83845EDE7C5F83C4574E76FF01500DC
:1051B80044E76FF0850041E759CD0000F0F0FCFFAF
:1051C8002DE9F74306464FF0000800220121082088
:1051D800FEF740FF0820FEF70DFF776835693C6849
:1051E8004146C4F800852E60D7F80C9001AA4846BD
:1051F80005F049FD00283FDB019BD9F8002019790B
:105208001868FFF70DFF002836DB6B7AD6F810C058
:10521800012B03D0032B2DD14FF01008AB7A032BB1
:1052280028D195F80BE0BEF1000F02D0BEF1010FB6
:1052380020D12A7A012A22D0022A24D0D2B91046B3
:105248006B687168B3F5164F096800F0BA803AD8F0
:10525800B3F5165F00F0B88020D8B3F5966F00F06C
:10526800B58012D8B3F5967F00F0B380B3F5167FFA
:1052780000F0B2806FF0850003B0BDE8F0834FF412
:1052880080700E22DCE70020FBE7B3F5166F00F014
:10529800A680B3F5965FEDD15D4B43E0B3F5E14FE2
:1052A80000F0A08008D8B3F5615F00F09D80B3F5E9
:1052B800964FDFD1574B35E047F612294B45D9D1E8
:1052C8004FF400032EE0B3F5613F00F08F8015D84E
:1052D800B3F5963F00F08D800AD84DF6C0294B45AE
:1052E80000F08980B3F5614FC4D14FF46B0319E026
:1052F800B3F5E13FBED14FF0EB7313E0B3F5612F87
:105308007CD009D8DFF810914B457AD0B3F5E12F5E
:10531800B0D14FF0E86305E0DFF800914B45A9D123
:105328004FF08053C1F82435736840EA0E001B68BB
:1053380042EA08021043C3F86C050CF10403D5E9EE
:10534800010183E803007B68990712D505F118006D
:1053580000F054FD324B984256D1287E04F10C02DD
:1053680004F5907105F032FD01202B7E984000F085
:1053780015FC0823C4F800353B7A53B9C4F810313A
:10538800D4F810316B69C4F834350123C4F83835C2
:1053980023607B6800209A075CBF4FF48073C4F8D1
:1053A80004337B68DB0644BF4FF48003C4F804333E
:1053B8002B69C4F844350123C4F84805A360E360A9
:1053C8005AE74FF41D03ADE7164BABE74FF49E23A6
:1053D800A8E74FF4A033A5E74FF41C33A2E74FF436
:1053E8001D239FE7104B9DE7104B9BE74FF06C7315
:1053F80098E70F4B96E74FF4650393E74FF0706318
:1054080090E74FF080638DE76FF0040034E700BF4A
:1054180000B0130000A04E0090D0030040420F00DF
:105428000000AD0B0050270000C0750000F03A00E6
:1054380000903A01F8B504460D46076905F011FFDA
:10544800B0B92E4B1B789BB16426606805F049FC07
:1054580000BB012005F0AEFC013EF6D10021212061
:1054680002F024FDF0E786F31188BFF36F8FF5E7AC
:105478004FF02003EFF3118683F31288BFF36F8F89
:105488006068314605F02DFC90B986F31188BFF3AA
:105498006F8FEDE74FF02003EFF3118683F3128847
:1054A800BFF36F8F6068314605F01BFC0028DAD027
:1054B8003B691D70626838691368C3F844050120A8
:1054C800C3F848050020C3F82001D3F82051C3F8D9
:1054D80058015268D3F85801D20608D508206268E6
:1054E8001268C2F800054FF48002C3F804230122B1
:1054F8009A6081F31188BFF36F8FF8BDDB1000202D
:105508000123834070B5DC430B4AD2E8EF1F01EA60
:105518000405C2E8E65F002EF7D14FF480328240DE
:105528000648C0F80823BFF35F8FBFF36F8F0B42A5
:1055380014BF0120002070BD240E0020005001502F
:1055480070B40E4922F07F46D1E90034D01AC3184E
:1055580044F10004C1E90034A6F50013B3F5400F87
:1055680009D2074B1B681A0A1B069C19054B42F106
:105578000005C3E9004570BC02F0BABDE004002094
:10558800280E0020E8040020D9B101230D4A8340E9
:10559800D2E8EFCF4CEA030CC2E8E1CF0029F7D1FB
:1055A8004FF48033084A8340C2F80433074BD3E8EA
:1055B800AF3FC340DB0742BF4FF40012044BC3F8B0
:1055C80000217047240E002000500150200E0020BA
:1055D80000E100E00D4B1868010A0006BFF35F8F79
:1055E8000B4BD3F80435181841F10001B3F5801FAF
:1055F8000AD2084BD3E90023904271EB030303D28C
:1056080010F1807041F10001704700BF280E0020A2
:1056180000500150E80400202DE9F04F85B01646EF
:105628001F4604469DF840A0FFF76AFF0190FFF768
:10563800D1FFB04271EB070352D23B4B301A67EBF4
:105648000101984271F100014DD2384B03EB04136C
:10565800D3E902239F4208BF964258D04FF48038BE
:10566800334908FA04F8204626F07F4BC1F84883EE
:1056780005F080FB4FF00309584604F15005AD00D2
:10568800ADB205F1502504F5A87305F580350293F0
:10569800029A20F07F4341F82230C1F84483D1F8C0
:1056A8000435244AC01A033820F07F4090422ED98E
:1056B800286868B1D1F80435A3EB0B0020F07F40CF
:1056C800B0F5000F039322D9204605F053FB039B46
:1056D800BAF1000F07D109EB030009F10109D7E777
:1056E800BAF1000F09D06FF0150520460199FFF7B0
:1056F8004BFF284605B0BDE8F08F01230E4AA340B2
:10570800D2E8EF0F1843C2E8E10F0029F8D10749A2
:105718000E982301C8500F9B01EB04120025C2E923
:1057280002675360E1E700BF01008000D004002059
:1057380000500150FDFF7F00200E00207FB500259E
:105748004FF0FF304FF0FF31194C1A4B0226C4F8C6
:105758000833C4F84833184BC4F80855C3E90201A4
:105768004FF480334FF40012C4F80433134B012173
:10577800C4F804631520C3F880212A46FEF76AFCA2
:105788001520FEF737FC01230D4AA3602360136040
:105798000C4B0D4A009328460023CDE90155FFF72D
:1057A8003BFF3046FFF7B8F8284604B070BD00BF8D
:1057B8000050015003000F00D004002000E100E079
:1057C800240E002049550000FFFF7F002DE9F74314
:1057D8002E4BD3F8042390070BD5D3F8042142B1FC
:1057E8000022C3F804212A4AD3F80431136801338C
:1057F8001360264AD2F80433D90327D5254BD3E8BA
:10580800EF1F21F00100C3E8E40F002CF7D1CB070C
:1058180002D4D2F84031CBB100251C4CC4F8405119
:10582800D4F84031FFF7D6FE4FF02003EFF3118292
:1058380083F31288BFF36F8F174BD3E90267B04227
:10584800B94106D282F31188BFF36F8F03B0BDE868
:10585800F0834FF0FF38D3E900104FF0FF391D6097
:10586800C3E902894FF48033C4F84833C4F840517F
:10587800D4F8403182F31188BFF36F8F0029E5D047
:10588800009032463B4628468847DFE700500150E3
:10589800280E0020200E0020D004002030B5431C24
:1058A800124C85B005D08442A8BF0446012CB8BF6D
:1058B8000124FFF78FFE0E4B0C4DD3E90013401A5D
:1058C800B0F5000F0FD22218AA4228BF2A4600209E
:1058D80052180849CDE90100009143F10003FFF790
:1058E8009BFE05B030BD2A46F1E700BFFFFF7F00F1
:1058F800E00400204955000008B5FFF76BFE024B95
:105908001B68C01A08BD00BFE0040020012310B5C1
:10591800074C15206360FEF77BFB4FF40012054B24
:10592800C4F80833C4F84833034BC3F8802110BDCA
:105938000050015003000F0000E100E04FF47F0326
:10594800D3F83021D3F83431072A05D1023B032B91
:1059580002D8024AD05C70470020704774CD00001E
:1059680008B5FFF7EBFF58B1644BD3F8202A3AB9D2
:105978000D21C3F8201A0121C3F81C19C3F81C29EA
:105988000022D30003F57F03D3F80013013107D0B9
:10599800D3F800130132D3F80433202A0B60F0D176
:1059A800FFF7CCFF002840F0A080FFF7C7FF40B109
:1059B800534B544AC3F830254FF050230122C3F803
:1059C80058254FF47F03D3F83021D3F83431072A10
:1059D80009D1023B032B06D84B4AD35C1BB10022EA
:1059E8004A4BC3F84C25FFF7A9FF50B14FF050239D
:1059F800D3F80024D10742BF0022C3F81421C3F80A
:105A080018214FF47F03D3F83021D3F83431072A13
:105A180009D14FF05023D3F80024D20744BF6FF0C8
:105A28000102C3F80024FFF789FF18B16522334B40
:105A3800C3F80C274FF47F03D3F83021D3F834315F
:105A4800072A16D1314BD3F82034002B11DA4FF046
:105A580050230322C3F8182501229A60D3F80421A1
:105A6800002AFBD00022C3F804210122DA60C3F81F
:105A780018254FF47F03D3F83021D3F83431072A9F
:105A880023D1023B032B02D8214AD35CEBB17E22FF
:105A98001A4B1B49C3F80C27C3F83C297F231D4A1E
:105AA800C2F818310023C1F8043EC1F8083E01F5D8
:105AB8004821C1F81031C2F82431C2F82C3102F55E
:105AC800FF1202F58052C2F8A032134AD2F88C3085
